:020000040800F2
:1000000000400020C900000871300008733000086B
:1000100000000000000000000000000000000000E0
:100020000000000000000000000000007530000823
:100030000000000000000000773000087930000860
:10004000C5000008C5000008C5000008C50000087C
:10005000C5000008C5000008C5000008C50000086C
:10006000C5000008C5000008C5000008C50000085C
:10007000C5000008C5000008C5000008150D0008EF
:10008000C5000008C5000008C5000008C50000083C
:10009000C5000008C5000008C5000008C50000082C
:1000A000C5000008C5000008C50000089D30000814
:1000B000F9300008C50000085D310008C5000008DF
:1000C0005FF808F100BEFEE710B500F017F800BEBB
:1000D000FEE704207146084202D0EFF3098001E0F8
:1000E000EFF308807146044A104700BEFEE700BEE9
:1000F000FEE700BEFEE77047EB00000830B583B0B6
:1001000003F03AF9304B314A1360314A1360314BF6
:10011000314A01E002CA02C330498B42FAD32B4B69
:100120001A682F4B9A4200D0FEE7294B1A682D4BD4
:100130009A42F9D1244B2C4A13602C4A13602C4B61
:1001400001E0002204C32B4A9342FAD3264B1B68DA
:10015000002B03D1254B1B68002B00D0FEE703F0DA
:100160000FF9694601A803F039F9234C234BE41A2F
:10017000A410002504E0AA00204BD358984701356D
:10018000AC42F8DC1E4C1F4BE41AA410002504E01E
:10019000AA001C4BD35898470135AC42F8DC0099B3
:1001A000019802F049FF0500174C184BE41AA410FF
:1001B00004E0013CA200154BD3589847002CF8DC12
:1001C000280003F0E1F8C046BABADECA00000020F9
:1001D00050010020000000207CC8010854010020CC
:1001E0007856341232547698540100204803002087
:1001F000540100204C030020380200083802000897
:1002000038020008380200083802000838020008E6
:100210007CC8010800000020540100207CC80108AF
:100220000000000000000000540100204C030020EA
:080230000000000000000000C6
:1002380010B580200121400503F0C2FE012003F023
:10024800F1FD012003F00CFE212003F00DFF002832
:10025800FAD08020400003F021FE012003F03CFE8C
:1002680010BD10B5002003F061FF10BD10B50100EE
:10027800002003F03DFF10BD30B583B002F0B6FD9D
:10028800A023F022022100915B00520000210020EF
:1002980002F014FE002408E0F0222100373189B270
:1002A8005200002002F0C6FD0134012CF4DD0024C8
:1002B80008E0F0222100FF3189B25200002002F04C
:1002C800B9FD0134012CF4DD46201B4AB421FF306E
:1002D80002F062FE194B1C6822006921AA2002F074
:1002E8005BFE22006921F52002F056FE144D82249F
:1002F80064002A002100372002F04EFE2A00210067
:10030800D22002F049FEB4202A002100400002F069
:1003180043FE0C4A0921322002F03EFE78200A4AA8
:100328000921FF3002F038FE084AB421502002F0BB
:1003380033FE03B030BDC04628AA01080C8400086B
:10034800A8B3010838B1010880C30108D86C0008B7
:1003580010B502F08FFF02F0BFFF144B1868FA21A6
:10036800890004F071FA013880235B0498420DD2A9
:100378000F4A50600F48036A1B021B0AC021090676
:100388000B430362002393600733136009490B6A28
:100398001B021B0AC022120613430B6200F072FCF8
:1003A80000F0ACF8FFF768FF10BDC046E000002081
:1003B80010E000E000ED00E010B58020012180048D
:1003C80003F0FEFD80200121800203F0A5FD10BD91
:1003D800F0B5D6464F464646C0B582B09024E405EF
:1003E80004220C21200003F097FC04220B2120009A
:1003F80003F092FC80267601009600239A466B460D
:1004080052469A71022399466B464A461A7101234D
:1004180098466B464246DA7103275F7169462000A9
:1004280003F022FB80252D0100956B4652469A71F8
:100438004A461A714246DA715F716946200003F034
:1004480013FB3100200003F003FC3100200003F00F
:1004580031FC2900200003F0FBFB2900200003F0F9
:1004680029FC02B0E0BCBA46B146A846F0BD00B5CA
:1004780083B001A81E2303701D3B837000234370C3
:1004880003F094FC03B000BDFEE7000010B584B093
:10049800184C200002F0B0FF174900238B71CB7174
:1004A8000B724B728B72CB728B70CB700C330B71DF
:1004B8000B3B4B7105330B80200002F0B5FF002881
:1004C80016D000236A469372D372012269460A73D2
:1004D8000B804B808B80CB800B814A73684603F07E
:1004E80091F801220221034803F0A6F904B010BDD7
:1004F800FFF7CAFF006400405801002010B5FFF75D
:100508005BFFFFF765FFFFF7C1FFFFF7B0FF10BD07
:10051800037841780902194383781B040B43C07898
:10052800000618437047000010B505F01DFD044A89
:10053800044B04F0E3FE04F065FAC0B210BDC046F7
:100548002B4F20EC14ABB63F10B505F00DFD034A58
:10055800034B04F0D3FE05F02DFD10BD06A051BAE3
:10056800F42F993F70B5FFF7DFFF04000A2104F06C
:100578006BF9C5B20A21200004F0ECF9CCB2074EA1
:10058800AD00AA596921AA2002F006FDA400A259CB
:100598006921F52002F000FD70BDC0460C840008FA
:1005A80010B53B4B98424AD010D93A4B984264D088
:1005B8002BD9394B984241D1384802F0EDFD384BE0
:1005C800DA697D21322002F0E7FC37E0354B9842AA
:1005D8003FD00CD9344B984230D1344802F0DCFD7E
:1005E8002F4B9A687821322002F0D6FC26E00028AA
:1005F8001BD0012822D12E4802F0CEFD284B1A6AC2
:100608007D21372002F0C8FC18E02A4B98422AD0F6
:10061800294B984212D1294802F0BEFD204B5A6955
:100628007821322002F0B8FC08E0254802F0B4FD39
:100638001B4B1A687821322002F0AEFC10BD21480D
:1006480002F0AAFD164B5A687821322002F0A4FC69
:10065800F4E71D4802F0A0FD114BDA68782132203A
:1006680002F09AFCEAE7194802F096FD0C4B1A6969
:100678007821322002F090FCE0E7154802F08CFD6A
:10068800074B9A697821322002F086FCD6E7C046EB
:10069800102312000573160005731700806C0008FC
:1006A800B06C00082032030010320600246C0008E9
:1006B800986C00080573130003731500506C00084C
:1006C800086C0008186C0008306C00083C6C0008C6
:1006D800686C000810B586B0154B1A68154C2100D7
:1006E80001A805F017FF01A802F056FD124B1A6881
:1006F800210001A805F00EFF01A802F04DFD0F4BE7
:100708001A68210001A805F005FF01A802F044FDC0
:100718000B4B1A68210001A805F0FCFE01A802F0A5
:100728003BFD084B1868FFF73BFF06B010BDC046FD
:1007380078010020A86C00087001002074010020D6
:10074800640100206C01002010B51B4B1B78002BA6
:100758001ED01A4B1B681A4A934211D0194A934269
:1007680017D0194A93421AD0184A93421DD0184AF2
:1007780093420AD11748FFF7CBFE174B186004E0E5
:100788001448FFF7C5FE154B18600B4B00221A7072
:1007980010BD1048FFF7BCFE114B1860F5E70D4877
:1007A800FFF7B6FE0F4B1860EFE70A48FFF7B0FEF9
:1007B8000D4B1860E9E7C0465802002044020020AB
:1007C80045020000A90200000D03000071030000AB
:1007D800D50300004F0200206401002078010020AA
:1007E80070010020740100206C010020F8B5CE468D
:1007F800474680B50500FA21890004F025F8040071
:10080800FA218900280004F0A5F88BB29846FA214D
:100818008900200004F018F80700FA218900200058
:1008280004F098F80800642104F00EF8060064212A
:10083800200004F08FF808000A2104F005F80500EC
:100848000A21200004F086F889466421404603F016
:10085800FBFFC3B29846FF2438002040184F8000A1
:10086800C2591B21372002F097FB2640B600F259E7
:100878001B21462002F090FB2540AD00EA591B21C0
:10088800552002F089FB4B461C40A400E2591B216D
:10089800642002F081FB0B4A1B21732002F07CFBD1
:1008A80043469800C2591B217F2002F075FB064A77
:1008B8001B218E2002F070FBC0BCB946B046F8BDC3
:1008C800B06C0008E880000850820008F0B5C64601
:1008D80000B50400FA21890003F0B6FF0500FA21EB
:1008E8008900200004F036F88EB20A21280003F0AF
:1008F800ABFF04000A21280004F02CF88846642184
:10090800300003F0A1FFC6B2FF252C40134FA4000E
:10091800E259B4201B21400002F03EFB43461D4033
:10092800AD00EA5978201B21FF3002F035FBC320C7
:100938000B4A1B21400002F02FFBB600F259C920D8
:100948001B21400002F028FBA220064A1B21FF3091
:1009580002F022FB80BCB846F0BDC046B06C00086F
:10096800E880000850820008F8B505000A2103F065
:100978006BFF04000A21280003F0ECFF0E00FF259E
:100988002C40074FA400E259B421322002F004FBA6
:100998003540AD00EA59B421412002F0FDFAF8BD16
:1009A800B06C0008F0B5C64600B50400642103F039
:1009B8004BFF06006421200003F0CCFF08000A2149
:1009C80003F042FF05000A21200003F0C3FF884618
:1009D800FF2426400C4FB600F2599621322002F02F
:1009E800DBFA2540AD00EA599621412002F0D4FAFD
:1009F80043461C40A400E2599621502002F0CCFA4C
:100A080080BCB846F0BDC046B06C000870B5244B39
:100A18001B78DBB2042B00D870BDFFF75BFE214BBF
:100A28001868FFF791FD051C1F4E316804F008F89F
:100A3800041C30601D4E291C306804F001F8306039
:100A48001B49201C03F0B2FF002819D1154B186868
:100A5800FFF788FD174B1868FFF7C8FE134B186897
:100A680003F0B8FFFFF732FF134B1868FFF77CFF5E
:100A7800124B1868FFF796FF094B00221A70CBE754
:100A88000C4D286804F0F8FB211C03F0D9FF03F093
:100A9800A1FF2860044B00221A60FFF7E7FBD5E7A7
:100AA800590200207001002068010020A8010020E0
:100AB8000000C842A4010020740100206401002045
:100AC80010B5FC200121C00303F026FA0121012002
:100AD80003F076FA0121012003F048FA10BD000066
:100AE800F0B5DE4657464E464546E0B583B001258B
:100AF8006B461D71002398466B4642469A71DA711F
:100B08005D7180235B019A460093464E694630002A
:100B180002F0AAFF04239B4600936946424802F06C
:100B2800A3FF20230093414C6946200002F09CFF5C
:100B3800102300936946200002F096FF80239B0053
:100B480000936946200002F08FFF0823009369464E
:100B5800200002F089FF80235B0000936946200093
:100B680002F082FF8027FF0000979023DB0599465B
:100B78006946180002F078FF00976946300002F0D5
:100B880073FF80231B0200936946484602F06CFFFE
:100B980080239B01994600936946300002F064FF68
:100BA8006B4642461A71DD715D71009569462000F9
:100BB80002F05AFF022300936946200002F054FF16
:100BC80000976946200002F04FFF80231B01009325
:100BD8006946200002F048FF402300936946300030
:100BE80002F042FF5B4600936946200002F03CFF9A
:100BF800534600936946200002F036FF8023DB014C
:100C080000936946200002F02FFF4B460093694687
:100C1800200002F029FF03B0F0BCBB46B246A9464B
:100C2800A046F0BD00080048000C00480004004839
:100C380010B582B0104900230B81104A0A80104A6F
:100C48004A604B808B728024E405200003F08AFA06
:100C580001A80F2303700E3B83700133437003F028
:100C6800A5F80121200003F0A9FB012201212000A1
:100C780003F04CFB02B010BD7C010020C30900004A
:100C88000F27000010B5FFF71BFFFFF729FFFFF73D
:100C9800CFFF10BD10B54200034BD15A8000034B63
:100CA800C05802F071FF10BD040000201800002099
:100CB80010B54200034BD15A8000034BC05802F0D4
:100CC800C7FF10BD400000205800002010B54200AA
:100CD800034BD15A8000034BC05802F0EBFF10BD04
:100CE800400000205800002010B580200121C005D8
:100CF80003F0C0FA10BD10B58024E40500212000DF
:100D080003F0B8FA0023636210BD000010B580201C
:100D18000121C00503F09AFB002800D110BD064A46
:100D280013780133DBB21370FFF7E5FF8020012150
:100D3800C00503F043FBF1E78801002070B5060009
:100D4800002513E0EC00641B200048303018053003
:100D580001230122290000F06BF9341922005232D4
:100D680000231370513423700135EDB2092DE9D9F0
:100D780070BD70B5060000240DE0E5002D1B751947
:100D8800002301222100280000F052F9280000F079
:100D98005BF90134E4B20A2CEFD970BD10B5040038
:100DA800FFF7CCFF2000FFF7E4FF10BD10B53F3080
:100DB80000F04AF910BD70B50500082303E000F003
:100DC8004AF9013C63B2002B16DB1A00D800C01A9E
:100DD800483028180530DCB2012C0AD87923EB5C9E
:100DE800012BECD1D3009B1AEB184F3301221A7058
:100DF800E7E700F030F9E4E770BD10B5CB00591A09
:100E0800401803004F331B78002B02D100F017F96C
:100E180010BD00F019F9FBE710B53F3000F00FF9ED
:100E280010BD0000F8B50500002453E0E71D0723B6
:100E38005F43EF196343EB184F331B78002B0FD137
:100E4800434B1B78002B02D1FFF74EFF40E000F028
:100E580026F9380000F023F93D4B00221A7037E0DC
:100E680000F0F2F8380000F0EFF831E0E3001E1B64
:100E7800AE194F363378002B06D100F0E0F8280081
:100E88002A3000F0E1F823E000F0DEF8062128001F
:100E9800FFF7B3FF1CE0E3001B1BEB184F331B7875
:100EA800002B06D1BE202B4A4B21400002F074F8DB
:100EB80023E0BE20284A4B21400002F06DF81CE0D8
:100EC800012C29D0062C34D021002800FFF795FFEB
:100ED8000134E4B2082C39D82600E000001B281899
:100EE800030052331B78002BF2D1A31EDBB2012B77
:100EF8009CD9052CBAD0082CCDD0002CE0D1F30019
:100F08009B1BEB184F331B78002BD9D1134A4B216D
:100F1800372002F041F8D3E7F3009B1BEB184F335F
:100F28001B78002BCED10E4A4B21372002F034F823
:100F3800C8E7F3009E1BAE194F363378012BC3D197
:100F4800084A4B21372001F0FFFFBDE7F8BDC04636
:100F580088010020E0BC0108E89D010888A4010878
:100F6800489801081098010810B50400FFF75AFFC7
:100F78000A4B1B78002B06D0094A1368591C1160CC
:100F88000A2B07D010BD2000FFF746FF034B0122B4
:100F98001A70F1E72000FFF709FFF3E78901002045
:100FA8008C01002010B5FFF7F9FE10BD10B5040044
:100FB800FFF701FF2000FFF7D7FF10BD70B5040051
:100FC8000D004378002B0AD1002904D10078FFF7DF
:100FD8006FFEA57070BD0078FFF778FEF9E700296D
:100FE80003D10078FFF772FEF3E70078FFF760FEA1
:100FF800EFE770B506000025002406E03078FFF71B
:1010080049FE2D18EDB20134E4B2022CF6D9013CA8
:10101800A54201DB012070BD0020FCE7034B1860EE
:10102800024B1B68002BFBD17047C0465C020020B6
:101038000170827043700023C3708371704710B5CC
:101048000021FFF7BBFF10BD10B50121FFF7B6FF68
:1010580010BD8078704770B50400FFF7FAFF0500EF
:101068002000FFF7C6FF6378002B0DD1012809D0B7
:101078000123A370A378AB420ED001232371002370
:10108800637170BDA370F5E7012802D00023A37037
:10109800F0E70123A370EDE700232371F1E710B512
:1010A8008378002B02D1FFF7CFFF10BDFFF7C7FFF2
:1010B800FBE7F02040007047A0204000704710B5C3
:1010C800112000F0A5FC012000F0E4FB10BD10B5D4
:1010D800002000F0DFFB102000F09AFC10BD00009B
:1010E80000B583B0002301930133032201A9D32063
:1010F80001F00AFB044B019A9A4202D0002003B087
:1011080000BD0248FBE7C0460094860086940000B4
:1011180010B5304B1B78DA070BD401221343DBB22E
:101128002C4A13709B0752D52A4A137802210B4385
:1011380013700A2000F0AAFB012000F069FC64206B
:1011480000F0A4FB244C01222100B02000F06EFF27
:10115800112000F05DFC0A2000F098FB01221F49D5
:101168003A2000F063FF362000F052FCE82000F03F
:10117800C7FC01221A49C22000F058FF211D042291
:10118800C52000F053FF21000C310F22E02000F0B1
:101198004DFF1C340F222100E12000F047FF0F22F1
:1011A8002100E22000F042FF132000F031FC202053
:1011B80000F02EFC112000F02BFCC82000F066FB8C
:1011C800292000F025FC0A2000F060FB10BD00F08B
:1011D80063FBA9E790010020E4970108D89701086C
:1011E800DC97010870B505000C002A2000F010FCFF
:1011F8002E0A300000F084FCEDB2280000F080FCDC
:10120800300000F07DFC280000F07AFC2B2000F074
:10121800FFFB250A280000F073FCE4B2200000F070
:101228006FFC280000F06CFC200000F069FC70BD29
:10123800F8B5CE46474680B505000C00914698465D
:101248001B4B19804346CF18BBB2013B194A138088
:101258002A2000F0DDFB280A00F052FCEEB2300034
:1012680000F04EFC2800484401380012C0B200F0DB
:1012780047FC4E44F0B20138C0B200F041FC2B20CC
:1012880000F0C6FB200A00F03BFCE4B2200000F0AE
:1012980037FC013F3812C0B200F032FC4444E0B2DF
:1012A8000138C0B200F02CFCC0BCB946B046F8BD4D
:1012B8009401002092010020F8B505000C001600EA
:1012C8002A2000F0A5FB2F0A380000F019FCEDB227
:1012D800280000F015FC380000F012FC280000F08F
:1012E8000FFC2B2000F094FB250A280000F008FCD6
:1012F800E4B2200000F004FC280000F001FC20000B
:1013080000F0FEFB2C2000F083FB300000F068FCAE
:10131800F8BD000070B582B005000C0001221B4921
:101328003A2000F083FE2A2000F072FB2E0A3000DB
:1013380000F0E6FBEDB2280000F0E2FB300000F020
:10134800DFFB280000F0DCFB2B2000F061FB250A06
:10135800280000F0D5FBE4B2200000F0D1FB280003
:1013680000F0CEFB200000F0CBFB6B469C1D012358
:10137800012221002E2001F0FDFA012204493A2021
:1013880000F054FE208802B070BDC046E097010806
:10139800D8970108F0B5C64600B580460C00150080
:1013A8001F002A2000F034FB200A00F0A9FBE6B257
:1013B800300000F0A5FBE419013C2412E0B200F073
:1013C8009FFBF619F0B20138C0B200F099FB2B2050
:1013D80000F01EFB2C0A200000F092FBEDB2280062
:1013E80000F08EFB200000F08BFB280000F088FB4B
:1013F8003A0041462C2000F0D1FC80BCB846F0BD34
:10140800F0B5C64600B580460D0014001E002A201F
:1014180000F0FEFA2F0A380000F072FBEDB2280047
:1014280000F06EFB380000F06BFB280000F068FB52
:101438002B2000F0EDFA200A00F062FBE5B228004C
:1014480000F05EFBA419013C2412E0B200F058FB46
:10145800AD19E8B20138C0B200F052FB3200414683
:101468002C2000F09BFC80BCB846F0BDF8B5CE46F9
:10147800474680B505000C0017001E0008AB1B8806
:1014880098462A2000F0C4FA280A00F039FBEBB28B
:101498009946180000F034FBE81901380012C0B270
:1014A80000F02EFB4B46D819C0B20138C0B200F08C
:1014B80027FB2B2000F0ACFA200A00F021FBE5B254
:1014C800280000F01DFBA01901380012C0B200F07E
:1014D80017FBAD19E8B20138C0B200F011FB3200B9
:1014E8007A4341462C2000F059FCC0BCB946B046AE
:1014F800F8BD0000F0B5C64600B59578D178090268
:10150800294313791B04194355792D060D43947A01
:10151800D17A09022143137B1B041943547B240607
:101528000C432D1B6D081419362000F071FAA82001
:1015380000F0E6FA2B2000F06BFA154F38884026A9
:10154800FF36301A0012C0B200F0DAFA38883F27A6
:10155800381AC0B200F0D4FA0E4B98461888301AE0
:101568000012C0B200F0CCFA43461888381AC0B24C
:1015780000F0C6FA2A0021002C2000F03BFE36209D
:1015880000F046FAE82000F0BBFA80BCB846F0BD8F
:101598009201002094010020F0B5C64600B5967867
:1015A800D1780902314313791B0419435679360659
:1015B8000E43947AD17A09022143137B1B04194301
:1015C800547B24060C43361B1419362000F020FAED
:1015D800A82000F095FA2B2000F01AFA154F388849
:1015E8004025FF35281A0012C0B200F089FA388861
:1015F8003F27381AC0B200F083FA0F4B9846188874
:10160800281A0012C0B200F07BFA43461888381A2C
:10161800C0B200F075FA320021002C2000F042FF21
:10162800362000F0F5F9E82000F06AFA80BCB846E8
:10163800F0BDC0469201002094010020F0B5C646D6
:1016480000B59678D1780902314313791B04194300
:10165800567936060E43947AD17A09022143137BD0
:101668001B041943547B24060C43361B14193620DB
:1016780000F0CEF9A82000F043FA2B2000F0C8F9BA
:10168800154F38884025FF35281A0012C0B200F0DF
:1016980037FA38883F27381AC0B200F031FA0F4BB2
:1016A80098461888281A0012C0B200F029FA434652
:1016B8001888381AC0B200F023FA320021002C2012
:1016C80000F088FF362000F0A3F9E82000F018FAAF
:1016D80080BCB846F0BDC0469201002094010020AD
:1016E800030A684A1370DA0700D474E09022D2051E
:1016F800042191619A0700D473E09022D205082151
:1017080091615A0700D472E05F4A012191611A077A
:1017180000D471E05C4A02219161DA0600D470E0DD
:10172800594A042191619A0600D46FE0564A08216B
:1017380091615A0600D46EE09022D2050121916190
:101748005BB2002B00DA6CE09023DB05802292026A
:101758009A614D4B802252049A619A61802252000C
:101768009A61C0B2474B1870C3075FD59023DB0559
:10177800FC3A9A6183075FD59023DB0508229A61BA
:1017880043075FD5404B01229A6103075FD53E4B63
:1017980002229A61C3065FD53B4B04229A618306F5
:1017A8005FD5394B08229A6143065FD59023DB0544
:1017B80001229A6140B200285EDB9023DB0580227B
:1017C80092029A61304B802252049A619A61802277
:1017D80052009A6170479022D2058021C902916116
:1017E80088E79022D20580210903916189E7264A7A
:1017F8008021490291618AE7234A80218902916107
:101808008BE7214A8021C90291618CE71E4A802119
:10181800090391618DE79022D205802149029161E7
:101828008EE79023DB0502229A6192E79023DB057D
:101838008022D2029A619DE79023DB058022120361
:101848009A619DE7104B802252029A619DE70E4BE8
:10185800802292029A619DE70B4B8022D2029A6104
:101868009DE7094B802212039A619DE79023DB05CF
:10187800802252029A619DE79023DB0502229A6139
:10188800A0E7C046960100200008004810B5FFF701
:10189800C5FB10BD7047000070B5DE4656464D4684
:1018A800444670B5554A5169A0231B030B43536145
:1018B8009024E40580218900A1612368504E3340BB
:1018C8008020C00203432360A3683340A3608022C2
:1018D8005200A2614B4B99619A61803A9A612268E1
:1018E80049498C460A40802149020A4322601A6805
:1018F8001640304318601A68604602401143196068
:101908001A68424911408022D2010A431A602268AB
:10191800302188468A4320398B460A432260226850
:10192800B0318C468A4380390A4322601A680326FC
:10193800B2430120824602431A601A680B30824380
:101948000425A9462A431A601A684546AA435D46F3
:101958002A431A601A686546AA430A431A6021682E
:10196800B1435246114321602268824349460A43E3
:101978002260A168C02292021143A1609968894639
:10198800C02109034D462943996099680A439A6022
:101998009968C02212020A439A60A26841460A4323
:1019A800A260A26861460A43A2609A6832439A60BC
:1019B8009A6802439A609A6841460A439A609A680C
:1019C80061460A439A60A3681E43A660A368184349
:1019D800A0600120FFF75AFF80239B04A361012028
:1019E800FFF754FF80218900A1610120FFF74EFF16
:1019F80078BCB346AA46A146984670BD001002407E
:101A0800FFFFF3FF00080048FFFFFCFFFF3FFFFF59
:101A18009023DB05802252049A61374B802292047E
:101A28009A61364B1870C3073AD59023DB05042218
:101A38009A6183073AD59023DB0508229A61430708
:101A48003AD52D4B01229A6103073AD52A4B022237
:101A58009A61C3063AD5284B04229A6183063AD57F
:101A6800254B08229A6143063AD59023DB050122CB
:101A78009A6140B2002839DB9023DB05802292026C
:101A88009A611D4B802252049A619A618022520009
:101A98009A618021890099619023DB059A617047DA
:101AA8009023DB058022D2029A61C2E79023DB05EE
:101AB800802212039A61C2E70F4B802252029A6178
:101AC800C2E70D4B802292029A61C2E70A4B80223C
:101AD800D2029A61C2E7084B802212039A61C2E7D8
:101AE8009023DB05802252029A61C2E79023DB052E
:101AF80002229A61C5E7C046000800489601002006
:101B08009023DB05802252049A61334B1870C30777
:101B180037D59023DB0504229A61830737D59023B4
:101B2800DB0508229A61430737D52C4B01229A61BD
:101B3800030737D5294B02229A61C30637D5274BAD
:101B480004229A61830637D5244B08229A614306FA
:101B580037D59023DB0501229A6140B2002836DB95
:101B68009023DB05802292029A611C4B802252044A
:101B78009A619A61802252009A619023DB059A61EA
:101B880070479023DB058022D2029A61C5E7902333
:101B9800DB05802212039A61C5E7104B80225202AE
:101BA8009A61C5E70D4B802292029A61C5E70B4BFB
:101BB8008022D2029A61C5E7084B802212039A61FB
:101BC800C5E79023DB05802252029A61C5E790237E
:101BD800DB0502229A61C8E7960100200008004848
:101BE8009023DB05802252049A61030A694A137024
:101BF800DA0700D477E09022D205042191619A0790
:101C080000D476E09022D205082191615A0700D4C9
:101C180075E0614A012191611A0700D474E05E4AB7
:101C280002219161DA0600D473E05B4A04219161D4
:101C38009A0600D472E0584A082191615A0600D4E5
:101C480071E09022D205012191615BB2002B00DA8C
:101C58006FE09023DB05802292029A614E4B80222E
:101C680052049A619A61802252009A61C0B2494B2B
:101C78001870C30762D59023DB05FC3A9A61830785
:101C880062D59023DB0508229A61430762D5424B4F
:101C980001229A61030762D53F4B02229A61C3066B
:101CA80062D53D4B04229A61830662D53A4B0822DD
:101CB8009A61430662D59023DB0501229A6140B2FE
:101CC800002861DB9023DB05802292029A61324B67
:101CD800802252049A619A61802252009A6190236C
:101CE800DB059A6170479022D2058021C902916173
:101CF80085E79022D20580210903916186E7264A6B
:101D080080214902916187E7234A802189029161F4
:101D180088E7214A8021C902916189E71E4A80210A
:101D2800090391618AE79022D205802149029161D5
:101D38008BE79023DB0502229A618FE79023DB056E
:101D48008022D2029A619AE79023DB05802212034F
:101D58009A619AE7104B802252029A619AE70E4BD9
:101D6800802292029A619AE70B4B8022D2029A61F2
:101D78009AE7094B802212039A619AE79023DB05C0
:101D8800802252029A619AE79023DB0502229A6127
:101D98009DE7C046960100200008004810B5902332
:101DA800DB05802464049C619E4B8024A4049C6110
:101DB8009D4B1870C30737D59023DB0504249C611D
:101DC800830737D59023DB0508249C61430737D563
:101DD800944B01249C61030737D5924B02249C61E4
:101DE800C30637D58F4B04249C61830637D58D4BAA
:101DF80008249C61430637D59023DB0501249C61A8
:101E080040B2002836DB9023DB05802080029861F1
:101E1800844B80204004986198618020400098613C
:101E28000130FF3098618BE09023DB058024E402C9
:101E38009C61C5E79023DB05802424039C61C5E7EA
:101E4800784B802464029C61C5E7764B8024A40209
:101E58009C61C5E7734B8024E4029C61C5E7714B24
:101E6800802424039C61C5E79023DB058024640259
:101E78009C61C5E79023DB0502209861C8E79022A2
:101E8800D2058024E402946166E09022D205802481
:101E98002403946166E0634A80246402946166E0E6
:101EA800604A8024A402946166E05E4A8024E402C9
:101EB800946166E05B4A80242403946166E0902282
:101EC800D20580246402946166E09023DB05022237
:101ED8009A6169E09022D2058024E402946174E05A
:101EE8009022D20580242403946174E04D4A802412
:101EF8006402946174E04B4A8024A402946174E003
:101F0800484A8024E402946174E0464A8024240309
:101F1800946174E09022D2058024640294615BB2DB
:101F2800002B73DB9023DB05802292029A613D4BE4
:101F3800802252049A619A61802252009A610200BA
:101F4800501E002A67D00B0A374A1370DA0796D555
:101F58009022D205042494619A0796D59022D2053E
:101F6800082494615A0796D52E4A012494611A07C9
:101F780096D52C4A02249461DA0696D5294A042477
:101F880094619A0696D5274A082494615A0696D5EC
:101F98009022D205012494615BB2002B95DB90233B
:101FA800DB05802292029A611E4B802252049A61BC
:101FB8009A61802252009A61CBB21B4A1370DA07E9
:101FC80088D59022D205042494619A0788D5902256
:101FD800D205082494615A0788D5124A01249461CD
:101FE8001A0788D50F4A02249461DA0688D50D4A63
:101FF800042494619A0688D50A4A082494615A06EA
:1020080088D59022D2050124946188E79023DB05C6
:1020180002229A618BE79023DB050132FF329A6135
:1020280010BDC046000800489601002010B5902356
:10203800DB05802464049C616C4B8024A4049C61AF
:102048006B4B1870C30737D59023DB0504249C61BC
:10205800830737D59023DB0508249C61430737D5D0
:10206800624B01249C61030737D5604B02249C61B5
:10207800C30637D55D4B04249C61830637D55B4B7B
:1020880008249C61430637D59023DB0501249C6115
:1020980040B2002836DB9023DB058020800298615F
:1020A800524B8020400498619861802040009861DC
:1020B8000130FF30986161E09023DB058024E40261
:1020C8009C61C5E79023DB05802424039C61C5E758
:1020D800464B802464029C61C5E7444B8024A402DB
:1020E8009C61C5E7414B8024E4029C61C5E73F4BF6
:1020F800802424039C61C5E79023DB0580246402C7
:102108009C61C5E79023DB0502209861C8E790220F
:10211800D2058024E40294613CE09022D205802418
:10212800240394613CE0314A8024640294613CE0D9
:102138002E4A8024A40294613CE02C4A8024E402C4
:1021480094613CE0294A8024240394613CE0902275
:10215800D2058024640294615BB2002B3BDB9023A0
:10216800DB05802292029A61204B802252049A61F8
:102178009A61802252009A6101310200501E002AA1
:102188002ED00B781A4A1370DA07C0D59022D205E0
:10219800042494619A07C0D59022D205082494613A
:1021A8005A07C0D5114A012494611A07C0D50F4AAD
:1021B80002249461DA06C0D50C4A042494619A0674
:1021C800C0D50A4A082494615A06C0D59022D2057F
:1021D80001249461C0E79023DB0502229A61C3E7DA
:1021E8009023DB050132FF329A6110BD00080048D8
:1021F8009601002010B59023DB05802464049C61BF
:102208009F4B8024A4049C619E4B1870C30737D54C
:102218009023DB0504249C61830737D59023DB05D5
:1022280008249C61430737D5954B01249C6103071B
:1022380037D5934B02249C61C30637D5904B0424B1
:102248009C61830637D58E4B08249C61430637D59D
:102258009023DB0501249C6140B2002836DB9023E3
:10226800DB05802080029861854B802040049861BE
:1022780098618020400098610130FF3098618CE0BF
:102288009023DB058024E4029C61C5E79023DB05ED
:10229800802424039C61C5E7794B802464029C61F7
:1022A800C5E7774B8024A4029C61C5E7744B802462
:1022B800E4029C61C5E7724B802424039C61C5E756
:1022C8009023DB05802464029C61C5E79023DB052D
:1022D80002209861C8E79022D2058024E402946124
:1022E80068E09022D20580242403946168E0644A5F
:1022F80080246402946168E0614A8024A4029461A5
:1023080068E05F4A8024E402946168E05C4A8024C3
:102318002403946168E09022D205802464029461C9
:1023280068E09023DB0502229A616BE09022D205D7
:102338008024E402946176E09022D205802424036C
:10234800946176E04E4A80246402946176E04C4AB7
:102358008024A402946176E0494A8024E4029461CE
:1023680076E0474A80242403946176E09022D205DF
:102378008024640294615BB2002B75DB9023DB053B
:10238800802292029A613E4B802252049A619A619D
:10239800802252009A6102310200501E002A68D041
:1023A8000B881B0A374A1370DA0794D59022D20596
:1023B800042494619A0794D59022D2050824946144
:1023C8005A0794D52E4A012494611A0794D52C4AA9
:1023D80002249461DA0694D5294A042494619A0661
:1023E80094D5274A082494615A0694D59022D20598
:1023F800012494615BB2002B93DB9023DB058022E0
:1024080092029A611E4B802252049A619A6180223C
:1024180052009A610B781B4A1370DA0786D590220E
:10242800D205042494619A0786D59022D2050824FF
:1024380094615A0786D5124A012494611A0786D5F1
:102448000F4A02249461DA0686D50D4A0424946161
:102458009A0686D50A4A082494615A0686D5902297
:10246800D2050124946186E79023DB0502229A6154
:1024780089E79023DB050132FF329A6110BDC0461F
:1024880000080048960100200200C1B2C30CDB021C
:1024980018B2D200FC23DB001A401043C9080843D5
:1024A80080B27047F0B5C64600B58846160090233E
:1024B800DB05802252049A61434B802292049A6180
:1024C800424B1870C3073ED59023DB0504229A615E
:1024D80083073ED59023DB0508229A6143073ED542
:1024E800394B01229A6103073ED5374B02229A6184
:1024F800C3063ED5344B04229A6183063ED5324B3F
:1025080008229A6143063ED59023DB0501229A6191
:1025180040B200283DDB9023DB05802292029A61BD
:10252800294B802252049A619A61802252009A6152
:102538000132FF329A613300013E002B3CD0434602
:102548001D8800242EE09023DB058022D2029A61A8
:10255800BEE79023DB05802212039A61BEE71A4B7F
:10256800802252029A61BEE7174B802292029A613A
:10257800BEE7154B8022D2029A61BEE7124B802239
:1025880012039A61BEE79023DB05802252029A610A
:10259800BEE79023DB0502229A61C1E70C48FFF7EA
:1025A8009FF80134072CC6DC802323412B42F5D049
:1025B8000020FFF795F8F4E79023DB05802252000E
:1025C8009A6180BCB846F0BD00080048960100201A
:1025D800FFFF000070B50C009023DB058021490443
:1025E8009961474B802189049961464B1870C3074C
:1025F80037D59023DB0504219961830737D59023CC
:10260800DB0508219961430737D53D4B01219961C5
:10261800030737D53A4B02219961C30637D5384BA2
:1026280004219961830637D5354B08219961430602
:1026380037D59023DB050121996140B2002836DBAC
:102648009023DB058021890299612D4B8021490463
:10265800996199618021490099610131FF3199613E
:1026680045E09023DB058021C9029961C5E79023E5
:10267800DB05802109039961C5E7214B80214902C7
:102688009961C5E71E4B802189029961C5E71C4BFA
:102698008021C9029961C5E7194B80210903996115
:1026A800C5E79023DB05802149029961C5E790239E
:1026B800DB0502219961C8E72688F0233340180119
:1026C800C0180001C0180303C018FFF7DDFEFFF7AC
:1026D80007F80F2006403001801900018019030314
:1026E800C018FFF7D1FEFEF7FBFF02342A00551E83
:1026F800002AE1D19023DB050132FF329A6170BDD7
:10270800000800489601002070B5DE4656464D4642
:10271800444670B59024E40580256D04A561934C6A
:102728008025AD04A561924C2070C4075DD5902426
:10273800E4050425A56184075DD59024E4050825F2
:10274800A56144075DD5894C0125A56104075DD5C0
:10275800864C0225A561C4065DD5844C0425A56177
:1027680084065DD5814C0825A56144065DD5902475
:10277800E4050125A56140B200285CDB9020C00576
:102788008024A4028461794880246404846184617B
:102798008024640084610134FF3484619024E4055A
:1027A80025683026B146B543256025689036B04681
:1027B800B54325600568BD3EB446B5430560056868
:1027C8000936B246B543056005684E46B54305600F
:1027D80005684646B543056020686546A8432060FD
:1027E80020685546A843206032E09024E4058025FF
:1027F800ED02A5619FE79024E40580252D03A561DE
:102808009FE75A4C80256D02A5619FE7574C8025AC
:10281800AD02A5619FE7554C8025ED02A5619FE7B4
:10282800524C80252D03A5619FE79024E40580255F
:102838006D02A5619FE79020C00502248461A2E78C
:102848004A4B802000049861986180209861230099
:102858005C1E002BF4D107E0002313E0434A8024D8
:1028680094610B7001310200501E002A40D03F4B8A
:10287800802212049A619A619023DB051B8A5B0708
:10288800EAD501239022D205128A120702D5022224
:102898001343DBB2354A128AD20702D50422134306
:1028A800DBB2324A128A920702D508221343DBB2FE
:1028B8002E4A128A520702D510221343DBB22B4A42
:1028C800128A120702D520221343DBB29022D205C6
:1028D800128AD20702D540221343DBB29022D205D6
:1028E800128A9207BAD5802252421343DBB2B5E767
:1028F8009023DB050132FF329A611A6830218B463A
:102908008A4320398A460A431A601A68B0318946D0
:102918008A4380390A431A60144A10680324A0467F
:10292800A043023CA4462043106010680C26B04324
:1029380004252843106014685846844350460443CD
:10294800146010684C46A04308431060196842465A
:1029580091436246114319601A68B2432A431A60C8
:1029680078BCB346AA46A146984670BD0008004800
:102978009601002070B5DE4656464D46444670B571
:1029880082B09024E40580256D04A561544C80250F
:10299800AD04A561534C2070C4075DD59024E405AF
:1029A8000425A56184075DD59024E4050825A56163
:1029B80044075DD54A4C0125A56104075DD5484CFF
:1029C8000225A561C4065DD5454C0425A56184068C
:1029D8005DD5434C0825A56144065DD59024E405E2
:1029E8000125A56140B200285CDB9020C005802449
:1029F800A40284613A488024640484618461802448
:102A0800640084610134FF3484619024E4052568FE
:102A18003026B146B543256025689036B046B543A3
:102A280025600568BD3EB446B543056005680936AE
:102A3800B246B543056005684E46B543056005686E
:102A48004646B543056020686546A843206020686F
:102A58005546A843206032E09024E4058025ED0225
:102A6800A5619FE79024E40580252D03A5619FE7D4
:102A78001B4C80256D02A5619FE7194C8025AD028E
:102A8800A5619FE7164C8025ED02A5619FE7144CD0
:102A980080252D03A5619FE79024E40580256D021C
:102AA800A5619FE79020C00502248461A2E70C4B32
:102AB80080200004986198618020986123005C1E42
:102AC800002BF4D124E001AB00221A7031E001ABF5
:102AD80000225A7080E001AB00229A70CFE0C04615
:102AE8000008004896010020A74B80229A6101A89F
:102AF8000378DB08DB021BB24278D200FC25ED002C
:102B08002A4013438278D20813430B8002312200F3
:102B1800541E002A00D1F7E09B4B802212049A61D0
:102B28009A619023DB051B8A5B07CCD501AB012298
:102B38001A709023DB051B8A1B0704D501AA13789A
:102B4800022003431370904B1B8ADB0704D501AAAC
:102B580013780420034313708B4B1B8A9B0704D5FF
:102B680001AA1378082003431370874B1B8A5B075D
:102B780004D501AA1378102003431370824B1B8AD3
:102B88001B0704D501AA1378202003431370902350
:102B9800DB051B8ADB0704D501AA13784020034311
:102BA80013709023DB051B8A9B0705D501AA1078B3
:102BB80080235B4203431370734B80229A61802207
:102BC80012049A619A619023DB051B8A5B0700D483
:102BD8007DE701AB01225A709023DB051B8A1B0796
:102BE80004D501AA5378022003435370664B1B8A0D
:102BF800DB0704D501AA5378042003435370624BC2
:102C08001B8A9B0704D501AA5378082003435370F5
:102C18005D4B1B8A5B0704D501AA53781020034338
:102C28005370594B1B8A1B0704D501AA53782020DF
:102C3800034353709023DB051B8ADB0704D501AAE5
:102C480053784020034353709023DB051B8A9B076E
:102C580005D501AA507880235B42034353704A4B41
:102C680080229A61802212049A619A619023DB057E
:102C78001B8A5B0700D42EE701AB01229A709023D0
:102C8800DB051B8A1B0704D501AA9378022003439E
:102C980093703D4B1B8ADB0704D501AA9378042067
:102CA80003439370384B1B8A9B0704D501AA93787A
:102CB800082003439370344B1B8A5B0704D501AA91
:102CC80093781020034393702F4B1B8A1B0704D55E
:102CD80001AA93782020034393709023DB051B8A75
:102CE800DB0704D501AA937840200343937090230F
:102CF800DB051B8A9B0700D4F6E601AA907880239F
:102D08005B4203439370EFE69023DB050132FF3209
:102D18009A611A6830218B468A4320398A460A43C9
:102D28001A601A68B03189468A4380390A431A60A2
:102D3800154A10680324A046A043023CA446204339
:102D4800106010680C26B0430425284310601468EE
:102D58005846844350460443146010684C46A043C8
:102D6800084310601968424691436246114319604E
:102D78001A68B2432A431A6002B078BCB346AA461E
:102D8800A146984670BDC0460008004810B5034CDF
:102D98002468E469002C00D0A04710BDCC000020B6
:102DA80010B5024B1B689B6A984710BDCC000020E9
:102DB80010B5024B1B68DB6A984710BDCC00002099
:102DC80070B582B00500084B1B685E6BFFF7E8FF23
:102DD8000400FFF7EDFF030000952200002100200A
:102DE800B04702B070BDC046CC00002010B5084BFB
:102DF800084C5C6000221A60074A9A60074B1B68FF
:102E08001B6898472000FFF7DBFF002010BDC04675
:102E180098010020FFFF000084000020CC00002063
:102E280010B5034B1B685B69002B00D0984710BD99
:102E3800CC000020F8B506000F0015000C4B1B68ED
:102E48001C6A002C11D00B4B188813000A003100A3
:102E5800A047F8BD074B1A88301980B23900FFF730
:102E6800DFFF0134A542F5D8F3E70024FAE7C046AE
:102E7800CC00002098010020F8B506000F001500CE
:102E88000C4B1B685C6A002C11D00B4B1888130084
:102E98000A003100A047F8BD074B1A88391989B2D2
:102EA8003000FFF7BDFF0134A542F5D8F3E7002451
:102EB800FAE7C046CC00002098010020F0B5DE46B5
:102EC80057464E464546E0B583B08246894600924D
:102ED80001930CAB1B789B46002398462BE0434696
:102EE8009DB26E00B6B2009B9C1BA4B2019B9E1BB8
:102EF800B6B25346EF18BFB24D44ADB22200290016
:102F08003800FFF797FF711989B2013989B2220099
:102F18003800FFF78FFF320029003800FFF7ACFFB9
:102F2800E419A0B2013880B232002900FFF7A4FFEB
:102F380001239C46E044C345D1DC03B0F0BCBB464A
:102F4800B246A946A046F0BD70B505000E001400B3
:102F5800927CE37C1B02D218A37DE17D09025B18F9
:102F68009BB292B23100FFF711FF0A4B1B689B6BB3
:102F7800002B03D02200310028009847FFF710FFEC
:102F88000400FFF715FF0300220000210020FFF7CF
:102F9800FDFE70BDCC00002070B505000E001400C9
:102FA800927CE37C1B02D218A37DE17D09025B18A9
:102FB8009BB292B23100FFF7E9FE0A4B1B68DB6B4C
:102FC800002B03D02200310028009847FFF7E8FEC5
:102FD8000400FFF7EDFE0300220000210020FFF7A8
:102FE800D5FE70BDCC00002010B5FDF7B1F9094839
:102FF800FDF7D8FFFDF71CF9FDF733F9064C206003
:10300800064B186801F0E6FCFDF760FC2068FDF748
:10301800EDFB10BDAC010020A4010020A801002098
:1030280010B50248FDF7C2FF10BDC046AC01002034
:1030380010B5FFF7D9FFFDF7E9FCFFF7F1FFFAE755
:10304800084B00221A605A601A7204219972DA74C5
:10305800002304E0034AD2180021D1720133032B64
:10306800F8DD7047440200207047FEE7704770475C
:10307800064A136801331360054B1B68002B03D005
:10308800034A1368013B13607047C0466002002082
:103098005C02002010B51249124801F035FB0028E7
:1030A80000D110BD0F4801F06FFA42B20E4B1B78E9
:1030B800DBB2642B02D90C4B002119700A4B1B7828
:1030C800DBB2632BEDD81F2AEBDD074A1378D9B2A0
:1030D8000133DBB21370C0B2044B5854E1E7C04669
:1030E80005010500003801402C030020640200207F
:1030F80010B51449144801F007FB002800D110BD91
:10310800114801F041FA040041B2104B1B78DBB2C0
:10311800642B02D90D4B00221A700C4B1B78DBB2C2
:10312800632BECD81F29EADD89B2074801F0EAF9D8
:10313800064A1378D9B20133DBB21370E4B2044BF8
:103148005C54DCE705010500004400402D03002025
:10315800C802002010B502210B4800F0C1FB00286E
:1031680000D110BD094A13780133DBB21370FFF7A1
:1031780067FF074A0021044800F0F6FA054B0122D0
:103188001A70FDF7E1FAECE70064004059020020EC
:10319800440200205802002010B504000AE08021F3
:1031A800064801F027FA0028F9D02178034801F0F1
:1031B800A9F901342378002BF1D110BD0038014062
:1031C80082B0002301930093274A116880235B0291
:1031D8000B431360244B1B68802292021340009318
:1031E800019B01330193009B002B04D1019AA0237A
:1031F800DB019A42EED11C4B1B689B0306D50123C9
:103208000093009B012B04D002B070470023009369
:10321800F7E7164B11221A60134B5A685A605A681E
:103228005A605A6812490A405A60596888225203FB
:103238000A435A601968802252040A431A600A4BEA
:103248001B689B01FBD5084B5A6803218A435A60C7
:103258005A6801390A435A60034B5A680C231340D1
:10326800082BF9D1D0E7C0460010024000200240E8
:10327800FF7FC0FF10B5124B1A6801210A431A607C
:103288005A68104802405A601A680F4802401A608B
:103298001A680E4802401A605A680D4802405A607F
:1032A800DA6A0F208243DA621A6B0A4802401A630C
:1032B8005A6B8A435A6300229A60FFF781FF10BD58
:1032C800001002400CB8FF08FFFFF6FEFFFFFBFFEF
:1032D800FFFFC0FFACFEFFFF10B5214B5A680C235F
:1032E8001340042B17D0082B19D0002B03D01D4BEB
:1032F8001D4A1A6002E01B4B1B4A1A60184B5A6899
:1033080012090F231340194AD35CDBB2154A11681E
:10331800D940116010BD134B134A1A60EEE7104BE9
:103328005C685968C0225202A30C0F241C40023466
:10333800114209D16201121B93019B1ADB001C196F
:103348002402084B1C60D9E7054BDB6A0F211940A2
:103358000131054801F078FA4443024B1C60CDE77F
:1033680000100240E000002000127A00D000002087
:1033780010B5FFF77FFF10BD10B5FFF7ADFF10BD0B
:10338800FEE710B50120FFF7FBFF000010B50300B2
:103398000D4A1268002A0BD00B4A10680333032227
:1033A8009343C318094A934206D8074A136010BDCD
:1033B800054A07491160EFE702F0ECFF0C230360B0
:1033C80001204042F3E7C04630030020003C0020C3
:1033D8004C03002001230360014B0B607047C0467B
:1033E800E400002010B5FFF7CCFF014201D0012016
:1033F80070470020FCE7000010B5094B984203D045
:103408009C210848FFF7EEFF8024A4040121200036
:1034180000F000FE0021200000F0FCFD10BDC046B9
:1034280000640040F0C5010870B504000D00724B3F
:10343800984203D0B3217148FFF7D4FFAB79012B31
:1034480032D8EB79012B34D82B7A012B36D86B7A0A
:10345800012B38D8AB7A012B3AD8EB7A012B3CD820
:10346800AB78032B3ED8EB78032B40D82B790F2B66
:1034780042D86B79072B44D82B88013B9BB280221A
:10348800D200934242D223680222934323602368E6
:10349800013A1343236000236268D2073BD4584A99
:1034A800934238D00133F7E7B4215448FFF79AFF25
:1034B800C7E7B5215148FFF795FFC5E7B6214F4843
:1034C800FFF790FFC3E7B7214C48FFF78BFFC1E731
:1034D800B8214A48FFF786FFBFE7B9214748FFF7F9
:1034E80081FFBDE7BA214548FFF77CFFBBE7BB2159
:1034F8004248FFF777FFB9E7BC214048FFF772FF62
:10350800B7E7BD213D48FFF76DFFB5E7BE213B4852
:10351800FFF768FFB7E76368DB0768D5AB79012B6E
:103528003BD02368802293432360EB79012B39D069
:1035380023684022934323602B7A012B37D02368DA
:103548002022934323606B7A012B35D02368102205
:1035580093432360AB7A012B33D02368082293432B
:103568002360EB7A012B31D0236804229343236034
:10357800AB789B07EA78120613432A79120413439F
:103588006A79120513432A88013A1343E3612368D1
:1035980001229343236000231EE023688022134303
:1035A8002360C2E72368402213432360C4E72368EB
:1035B800202213432360C6E72368102213432360A5
:1035C800C8E72368082213432360CAE72368042254
:1035D80013432360CCE701336268D20702D5084A57
:1035E8009342F8D16368DB0703D5002000E0002090
:1035F80070BD0120FCE7C04600640040F0C501082A
:10360800FFFFFF0070B50400837A1B2B5BD8E37AB9
:10361800012B5ED8237B012B61D82389012B64D829
:10362800637B012B00D966E0A37A01252A009A4022
:103638004B4B802080001958294319508725AD002D
:103648005959D04391435951237B002B18D1444DEC
:10365800832189006B5803406B50E1880904668810
:10366800A37A31434833DB005951A18809042588DE
:10367800A37A29434833DB00394DAC46634459608B
:10368800237B012B3DD0E37A002B54D1344D81218B
:1036980089006B5803406B502389002B05D1304DAE
:1036A800852189006B58184068502389012B49D01F
:1036B800637B012B4DD02A49802292008B58012030
:1036C80083438B5070BD3C21FF312648FFF78AFEAB
:1036D8009DE79E2149002348FFF784FE9AE73E2193
:1036E800FF312048FFF77EFE97E79F2149001D48DC
:1036F800FFF778FE94E74021FF311A48FFF772FE82
:1037080092E7174D832189006B5813436B5021882A
:1037180009046688A37A31434833DB005951A188EC
:103728000904E588A37A29434833DB000C4DAC46ED
:1037380063445960A7E70A4D812189006B581343F8
:103748006B50A9E706488521890043581343435025
:10375800AEE703488721890043581A434250AAE735
:1037680000640040F0C5010870B505000E001400A3
:103778002D4B984203D02D492D48FFF733FE012EDB
:1037880040D833001B331B015A59042313402372BA
:103798003DD133001B331B015B595B0D23603300A4
:1037A8001B331B01595902220A406272EB185968EF
:1037B8000F220A40A2725B681B0AE3743301EB18FC
:1037C8001A00B932FF321168E1721168090A2173CF
:1037D8001168090C61731268120EA273BD33FF33AE
:1037E8001A68E2731A68120A22741A68120C627450
:1037F8001B681B0EA374002E10D1EB682022134304
:10380800EB6070BD0B490A48FFF7ECFDB9E73300E0
:103818001B331B015B59DB086360C0E72B6920225F
:1038280013432B61EDE7C04600640040D902000055
:10383800F0C50108DA02000070B505000C0016009A
:10384800234B984203D023492348FFF7CBFD631E3F
:10385800012B25D9042C23D0082C21D0102C1FD0C3
:10386800202C1DD0402C1BD080235B009C4217D0FD
:103878000133FF339C4213D08023DB009C420FD0DE
:1038880080231B019C420BD080231B029C4207D043
:1038980080235B029C4203D080239B029C4207D179
:1038A800012E0BD8002E0ED069690C436C6170BDD7
:1038B8009921C9000848FFF795FDF1E7074906482F
:1038C800FFF790FDEEE76B69A3436B61EFE7C04636
:1038D80000640040C7040000F0C50108C9040000E6
:1038E80070B505000C005B4B984204D0B221C900AA
:1038F8005948FFF777FD631E012B25D9042C23D0E7
:10390800082C21D0102C1FD0202C1DD0402C1BD0CF
:1039180080235B009C4217D00133FF339C4213D0B5
:103928008023DB009C420FD080231B019C420BD0DC
:1039380080231B029C4207D080235B029C4203D059
:1039480080239B029C4213D16B691C427CD080234C
:103958005B009C4269D019D8202C0ED8002C00D1CD
:1039680074E0202C00D973E0A4003C4B1B599F46FF
:103978003B493948FFF736FDE6E7402C04D1286972
:103988001021FFF732FD60E000205EE080231B027B
:103998009C4254D00CD980235B029C4240D08023A7
:1039A8009B029C421CD168681021FFF71EFD4CE069
:1039B8008023DB009C423DD080231B019C4204D124
:1039C800A8697021FFF711FD3FE080239B009C420E
:1039D80004D1A8690221FFF708FD36E0002034E091
:1039E800002032E0A8681F49FFF7FFFC2DE0E868D7
:1039F8000321FFF7FAFC28E0E8680821FFF7F5FC47
:103A080023E0E8681021FFF7F0FC1EE02869032195
:103A1800FFF7EBFC19E028690821FFF7E6FC14E042
:103A280068680821FFF7E1FC0FE0A8690121FFF7AA
:103A3800DCFC0AE0A8690421FFF7D7FC05E0686808
:103A48000421FFF7D2FC00E0002070BD0020FCE755
:103A58000020FAE700640040F0C5010820C601080C
:103A6800910500000101010070B505000E009023CA
:103A7800DB05984212D03E4B98420FD03D4B9842FE
:103A88000CD03D4B984209D03C4B984206D03C4B59
:103A9800984203D0AE213B48FFF7A4FC3368002BC3
:103AA80007D03379032B09D8F379022B0BD80024DC
:103AB80041E0AF213348FFF795FCF2E7B0213148E8
:103AC800FFF790FCF0E7B1212E48FFF78BFCEEE7FB
:103AD800AB68610003228A409343AB60AB6872799C
:103AE8008A401343AB60B379012B3BD8AB882204DF
:103AF800120C012191408B43AB80A988B379934084
:103B08009BB20B43AB802A686100032318008840EE
:103B180082432A602A683079884002432A60EA682A
:103B28002004C00B83409A43EA60EB68F2798A402C
:103B38001343EB6001340F2C19D80123A3403268DA
:103B48001A409342F6D13379013BDBB2012BDAD824
:103B58007379012BBCD9032BBAD0C1210948FFF7CF
:103B680041FCB5E7C8210748FFF73CFCBEE770BD3C
:103B78000004004800080048000C004800100048F5
:103B880000140048A4C6010870B504000D00902375
:103B9800DB05984213D0284B984210D0274B984207
:103BA8000DD0274B98420AD0264B984207D0264B77
:103BB800984204D02C21FF312448FFF713FC6B1ED8
:103BC8009BB2012B2BD9042D29D0082D27D0102DDD
:103BD80025D0202D23D0402D21D0802D1FD080230B
:103BE8005B009D421BD00133FF339D4217D08023D9
:103BF800DB009D4213D080231B019D420FD0802300
:103C08005B019D420BD080239B019D4207D08023FE
:103C1800DB019D4203D080231B029D4204D1238AED
:103C28002B4207D0012070BD962149000748FFF7B5
:103C3800D9FBF4E70020F6E7000400480008004834
:103C4800000C00480010004800140048A4C60108F1
:103C580070B504000D009023DB05984213D00F4B7C
:103C6800984210D00E4B98420DD00E4B98420AD075
:103C78000D4B984207D00D4B984204D08621FF3156
:103C88000B48FFF7AFFB002D01D0A56170BDC32124
:103C980049000748FFF7A6FBF7E7C04600040048BD
:103CA80000080048000C00480010004800140048B4
:103CB800A4C6010870B504000D009023DB059842E6
:103CC80013D00F4B984210D00E4B98420DD00E4B8C
:103CD80098420AD00D4B984207D00D4B984204D019
:103CE800CD2149000B48FFF77DFB002D01D025852C
:103CF80070BD9C21FF310748FFF774FBF7E7C0460A
:103D08000004004800080048000C00480010004863
:103D180000140048A4C6010870B505000C00160080
:103D28009023DB05984213D0184B984210D0184BBB
:103D380098420DD0174B98420AD0174B984207D09B
:103D4800164B984204D0812189001548FFF74AFB99
:103D58000F2C11D8072E14D8072323409B009E4010
:103D6800E108083189004A590F20984082434A5196
:103D78004A5916434E5170BD0A490948FFF732FBAC
:103D8800E8E709490648FFF72DFBE5E70004004886
:103D980000080048000C00480010004800140048C3
:103DA800A4C60108050200000602000070B5040060
:103DB8008378012B1FD86378032B21D8A378002B95
:103DC80023D023789A081548C03292001558032149
:103DD8001940C900FF231E008E40B5436678B6011E
:103DE80033408B402B43135023781F221A40012362
:103DF8009340036070BD52210948FFF7F3FADAE7F0
:103E080053210748FFF7EEFAD8E723781F221A4014
:103E180001239340014980228B50EBE700E100E049
:103E2800D8C6010810B50400012808D8002C0BD00A
:103E3800084A116880235B000B43136010BD68219A
:103E48000548FFF7CFFAF1E7024A136803490B4028
:103E58001360F3E7007000400CC70108FFFEFFFF86
:103E680010B50400012801D905280CD1094B1A6A9C
:103E780001218A431A621A6A03318A431A62186A4C
:103E880004431C6210BDCC2149000348FFF7AAFA7D
:103E9800ECE7C046001002403CC7010810B504001A
:103EA80080235B00984207D00133FF33984203D048
:103EB8000133FF33984204D1054B186A04431C624E
:103EC80010BDA121C9000348FFF78CFAF4E7C046EA
:103ED800001002403CC7010810B50400012808D8AA
:103EE800002C0BD0084A116A80231B020B43136273
:103EF80010BD06490648FFF775FAF1E7024A136A4A
:103F080004490B401362F3E7001002401905000052
:103F18003CC70108FF7FFFFF70B504000D000E4B82
:103F2800184201D1002803D10C490D48FFF75AFA6D
:103F3800012D06D8002D09D00A4B586904435C614D
:103F480070BD09490648FFF74DFAF3E7054A53697A
:103F5800A3435361F4E7C046A8FF81FE560500005D
:103F68003CC70108001002405705000070B5040066
:103F78000D000E4B184201D1002803D10C490D4801
:103F8800FFF730FA012D06D8002D09D00A4B9869A1
:103F980004439C6170BD09490648FFF723FAF3E71B
:103FA800054A9369A3439361F4E7C0461EA5B8FF89
:103FB8007D0500003CC70108001002407E05000096
:103FC80070B504000D000E4B184201D1002803D132
:103FD8000C490D48FFF706FA012D06D8002D09D027
:103FE8000A4BD8690443DC6170BD09490648FFF7EC
:103FF800F9F9F3E7054AD369A343D361F4E7C04667
:10400800CCB68185AB0500003CC701080010024012
:10401800AC05000070B504000D000E4B184201D12C
:10402800002803D10C490D48FFF7DCF9012D06D80B
:10403800002D09D00A4B186904431C6170BD094959
:104048000648FFF7CFF9F3E7054A1369A34313615D
:10405800F4E7C046CCB68185190600003CC70108C4
:10406800001002401A06000010B5040001281BD0F9
:10407800112819D0192817D0212815D0412813D074
:10408800592811D05A280FD05B280DD05C280BD0A6
:104098005D2809D05E2807D05F2805D0612803D0A5
:1040A800712801D057280AD163090ED10E4B1B681D
:1040B8001F200440E340DB0714D51E3810BDCF2174
:1040C800C9000A48FFF78EF9EEE7012B04D0022B4E
:1040D80005D0054B5B6BEBE7034B1B6AE8E7024B2C
:1040E8005B6AE5E70020E9E7001002403CC70108E9
:1040F80030B583B004000D0000230193042809D8CB
:10410800074B0193A400019824180194019B1D609A
:1041180003B030BD03490448FFF764F9F0E7C0462F
:1041280050280040420800006CC7010810B582B052
:10413800040000230193042809D8074B0193A40025
:10414800019824180194019B186802B010BD034916
:104158000348FFF747F9F0E75028004057080000E8
:104168006CC7010870B504000D00384B98421DD08B
:104178008023DB05984219D0354B984216D0354B31
:10418800984213D0344B984210D0344B98420DD0FB
:10419800334B98420AD0334B984207D0324B98425F
:1041A80004D0862149003148FFF71CF96B88002BA1
:1041B80007D0102B05D0202B03D0402B01D0602B2B
:1041C80038D12B89002B07D080225200934203D08C
:1041D8000132FF32934233D123889BB21B4A944267
:1041E80006D08022D205944202D0194A944203D1C3
:1041F800702293436A881343164A944204D01C4A97
:1042080013402A8913439BB223806B68E3622B888F
:1042180023850E4B9C4208D0114B9C4205D0114B74
:104228009C4202D0104B9C4201D1AB7A23860123D9
:10423800A38270BD0E21FF310C48FFF7D3F8C0E709
:10424800872149000948FFF7CDF8C5E7002C014050
:10425800000400400010004000140040002000400E
:104268000040014000440140004801409CC701084B
:10427800FFFCFFFF70B504000D001A4B98421DD0DB
:104288008023DB05984219D0174B984216D0174B5C
:10429800984213D0164B984210D0164B98420DD026
:1042A800154B98420AD0154B984207D0144B9842A8
:1042B80004D0972189001348FFF794F8012D07D8F7
:1042C800002D0AD02388012213439BB2238070BD9E
:1042D8000D490C48FFF786F8F2E72388012293433B
:1042E8002380F4E7002C0140000400400010004047
:1042F80000140040002000400040014000440140FC
:10430800004801409CC701085D02000070B5040028
:104318000D0016001D4B98421CD08023DB059842E7
:1043280018D01B4B984215D01A4B984212D01A4BF2
:1043380098420FD0194B98420CD0194B984209D08B
:10434800184B984206D0184B984203D01749184882
:10435800FFF748F8FF232A009A4301D1002D03D123
:1043680014491348FFF73EF8012E05D8002E08D04F
:10437800A1890D43A58170BD0F490D48FFF732F89B
:10438800F4E7A389AB43A381F5E7C046002C0140BD
:1043980000040040001000400014004000200040CD
:1043A8000040014000440140004801403A09000033
:1043B8009CC701083B0900003C09000070B50500D6
:1043C8000C00164B98421CD08023DB05984218D06D
:1043D800134B984215D0134B984212D0124B984267
:1043E8000FD0124B98420CD0114B984209D0114B68
:1043F800984206D0104B984203D010491048FEF757
:10440800F1FF104B1C4201D1002C03D10E490C487E
:10441800FEF7E8FFE443A4B22C8270BD002C0140F3
:10442800000400400010004000140040002000403C
:10443800004001400044014000480140BB09000021
:104448009CC7010800E1FFFFBC09000070B504002B
:104458000D00214B98421CD08023DB05984218D0D0
:104468001E4B984215D01E4B984212D01D4B9842B5
:104478000FD01D4B98420CD01C4B984209D01C4BB6
:10448800984206D01B4B984203D01B491B48FEF7A5
:10449800A9FF6B1E9BB2012B0BD9042D09D0082D47
:1044A80007D0102D05D0202D03D0402D01D0802D10
:1044B80008D1228AA3892B402A4208D0002B08D190
:1044C800002005E00E490D48FEF78CFFF1E70020BB
:1044D80070BD0120FCE7C046002C014000040040EC
:1044E800001000400014004000200040004001403F
:1044F8000044014000480140E10900009CC7010850
:10450800E209000070B505000C00144B984218D061
:10451800134B984215D0134B984212D0124B984225
:104528000FD0124B98420CD0114B984209D0114B26
:10453800984206D0104B984203D010491048FEF715
:1045480051FF80239B009C4203D2E405E40D2C8597
:1045580070BD0C490A48FEF745FFF6E700380140F0
:104568000044004000480040004C0040005000401B
:104578000014014000180140001C0140B60300006F
:10458800CCC70108B703000010B50400104B9842CF
:1045980019D0104B984216D00F4B984213D00F4B9E
:1045A800984210D00E4B98420DD00E4B98420AD02C
:1045B8000D4B984207D00D4B984204D0F221890048
:1045C8000B48FEF70FFFA08CC005C00D10BDC046FC
:1045D800003801400044004000480040004C0040C2
:1045E800005000400014014000180140001C014028
:1045F800CCC7010870B504000D00384B984218D09C
:10460800374B984215D0374B984212D0364B9842C8
:104618000FD0364B98420CD0354B984209D0354BC9
:10462800984206D0344B984203D034493448FEF7B8
:10463800D9FE012D45D0802D43D0402D41D0202DCD
:104648003FD0102D3DD080235B009D4239D00133EF
:10465800FF339D4235D0082D33D0042D31D0022DA3
:104668002FD08023DB009D422BD080231B019D424D
:1046780027D080235B019D4223D08023DB019D420C
:104688001FD080231B029D421BD080235B029D42CA
:1046980017D080239B029D4213D08023DB029D42CA
:1046A8000FD080231B039D420BD080235B039D42C8
:1046B80007D080239B039D4203D08023DB039D42C8
:1046C80004D1E3691D4206D0012070BD0D490C4894
:1046D800FEF788FEF5E70020F7E7C04600380140FE
:1046E8000044004000480040004C0040005000409A
:1046F8000014014000180140001C0140C2070000DE
:10470800CCC70108C307000070B505000C00364B84
:10471800984218D0354B984215D0354B984212D054
:10472800344B98420FD0344B98420CD0334B9842BC
:1047380009D0334B984206D0324B984203D03249C5
:104748003248FEF74FFE84235B009C4226D0304B54
:104758009C4223D02F4B9C4220D02F4B9C421DD0F3
:104768002E4B9C421AD02E4B9C4217D02D4B9C426C
:1047780014D02D4B9C4211D02C4B9C420ED02C4B6C
:104788009C420BD02B4B9C4208D02B4B9C4205D013
:104798002A4B9C4202D02A4B9C4216D1A2B2120A42
:1047A800FF21214001238B40012A13D0022A14D073
:1047B800AA681340240C0122A240E9690A40002B90
:1047C8000ED0002A0ED100200BE01E490F48FEF73C
:1047D80009FEE3E72A681340ECE76A681340E9E753
:1047E800002070BD0120FCE7003801400044004073
:1047F80000480040004C00400050004000140140B8
:1048080000180140001C014017080000CCC701082F
:104818000701070006010600050105000401040060
:10482800060208000A03090000030300000302004F
:10483800000301001A010B001B010C000E011100FE
:104848001603140018080000002243088B4274D392
:1048580003098B425FD3030A8B4244D3030B8B4279
:1048680028D3030C8B420DD3FF22090212BA030C82
:104878008B4202D31212090265D0030B8B4219D363
:1048880000E0090AC30B8B4201D3CB03C01A524183
:10489800830B8B4201D38B03C01A5241430B8B42CB
:1048A80001D34B03C01A5241030B8B4201D30B03B4
:1048B800C01A5241C30A8B4201D3CB02C01A5241DB
:1048C800830A8B4201D38B02C01A5241430A8B429E
:1048D80001D34B02C01A5241030A8B4201D30B0287
:1048E800C01A5241CDD2C3098B4201D3CB01C01AA1
:1048F800524183098B4201D38B01C01A52414309AB
:104908008B4201D34B01C01A524103098B4201D398
:104918000B01C01A5241C3088B4201D3CB00C01A05
:10492800524183088B4201D38B00C01A524143087D
:104938008B4201D34B00C01A5241411A00D20146A2
:10494800524110467047FFE701B5002000F006F815
:1049580002BDC0460029F7D076E770477047C046C9
:10496800844608006146FFE71FB500F073FA002887
:1049780001D40021C8421FBD10B500F0FFF9404224
:10498800013010BD10B500F065FA002801DB0020E9
:1049980010BD012010BDC04610B500F05BFA00281C
:1049A80001DD002010BD012010BDC04610B500F08B
:1049B8000BFA002801DC002010BD012010BDC04604
:1049C80010B500F001FA002801DA002010BD01201E
:1049D80010BDC0469E2110B5C905041CFFF7F0FFA5
:1049E800002803D1201C00F027FC10BD9E21201CAC
:1049F800C90500F073FA00F01FFC80231B069C46D3
:104A08006044F2E770B500220C4B04000D0001F081
:104A18008DFB002804D12000290001F06FFA70BD39
:104A2800064B00222000290000F0D6FE01F066FAAD
:104A380080231B069C466044F1E7C0460000E04125
:104A4800F0B5C64643025B0A4E0245004F00DA0045
:104A5800C40F9C46700A904600B52D0E3F0EC90F34
:104A6800B6098C424BD0EA1B002A36DD002F61D0F4
:104A7800FF2D00D1ADE08023DB041E431B2A00DCA0
:104A8800D3E001204346181A430100D48CE080018A
:104A98008709380001F054FB05388740854200DC5F
:104AA800B6E02D1AB3483840430704D00F2303401B
:104AB800042B00D00430430100D478E06A1CFE2D9A
:104AC80065D08001430A9C46D2B26346D00518439C
:104AD800E407204380BCB846F0BD002A35D07A1BD5
:104AE800002D00D0AFE04346002B00D1A7E0531EB5
:104AF800012A00D12FE1FF2A69D01A00AAE0E91B98
:104B0800002970DD002F37D0FF2D62D08023DB0411
:104B18001E431B2900DCB0E001204044430143D57B
:104B28000135FF2D33D00123934A0340400810403C
:104B38001843B9E7002E00D183E0511E012A00D1A5
:104B4800D8E0FF2A45D00A0098E7FE276A1C1742DA
:104B580000D086E0002D00D0B7E04346002B00D1FE
:104B6800F3E00022002EB0D0981B430100D4FAE0F5
:104B780043460C00F01A97E7002E00D1C8E04A1E01
:104B8800012900D1AEE0FF2923D01100C1E700239D
:104B9800FF229C4699E7FE216A1C114277D0FF2A22
:104BA800F5D0150046447008430700D07EE7C308D7
:104BB800FF2D0ED05B025B0A9C46EAB285E7002E09
:104BC80007D08022D203134203D0104201D10C0037
:104BD8000300002BDBD08020C00318434002430AA7
:104BE8009C46FF2271E70029D5D07A1B002D60D1A1
:104BF8004346002B24D0531E012A73D0FF2AE7D046
:104C08001A001B2A00DC85E001203D00801985E799
:104C180020233A00451B38000135EA405D1BA840B7
:104C2800431E9841002510433EE7202330009B1A7D
:104C380031009840D140431E9841084322E70C00B8
:104C480003001500B4E7FF2FC1D080234046DB04E2
:104C5800184380461B2A51DD01200C003D00301A04
:104C680012E743469F1B7B012BD4002F00D010E78F
:104C78000023002400229C4627E72023320030002E
:104C8800CA40591A8840431E9841104345E7002DF1
:104C98004AD14346002B63D00022002E00D114E7EE
:104CA80030004044430100D47EE7324B01351840C0
:104CB8007AE7FF2F8CD080234146DB0419438846CE
:104CC8009FE743460C00F71AE3E64246002A00D065
:104CD80075E7002E00D07AE78023DB0300249C468A
:104CE800FF22F2E6300040440125430100D45BE78F
:104CF800022518E743460125981BC5E620234446AC
:104D08004046D4409A1A9040431E98412043A4E755
:104D18000D004DE7202341464046D1409A1A904065
:104D2800431E9841084370E74246002A00D14FE7E6
:104D3800002E00D14DE78022D203134200D148E76C
:104D4800104200D045E7030043E7002E90D00C0046
:104D580084460022B9E643460C00F01A013593E672
:104D680084460022B1E6002800D01DE70023002475
:104D78009C46AAE6FFFFFFFBFFFFFF7D70B54200E0
:104D880045024E024C00C30F6D0A0120120E760A2E
:104D9800240EC90FFF2A06D0FF2C03D0A24201D14E
:104DA800B54206D070BD002DFCD1FF2CFAD1002EE3
:104DB800F8D18B4206D00120002AF3D12800431EE7
:104DC8009841EFE70020EDE770B5420045024E023A
:104DD8004C00C30F6D0A120E760A240EC80FFF2A64
:104DE8001BD0FF2C0ED0002A1BD1002C01D1002E85
:104DF8001CD0002D0CD083421CD00221581E084024
:104E0800013870BD002E22D1002AF4D1002DF2D134
:104E18000028F6D101204042F3E7002D17D1FF2CDE
:104E2800F0D0002CE7D1002EE5D1E6E70020002DD8
:104E3800E7D0E2E7A24205DCEADBB54202D8E7D3D5
:104E48000020DEE74342584140000138D9E70220FC
:104E58004042D6E770B5420045024E024C00C30FEF
:104E68006D0A120E760A240EC80FFF2A0BD0FF2CEB
:104E78000DD0002A1FD1002C16D1002E14D10020ED
:104E8800002D10D009E0002D0CD1FF2C13D1002EDD
:104E980008D1002A08D0834212D00221581E0840A7
:104EA800013800E0022070BD002DF4D10028FAD1AD
:104EB80001204042F7E7002CEDD1002EEBD1ECE7C2
:104EC800A24205DCF2DBB54202D8EFD30020EAE7C4
:104ED8004342584140000138E5E7C046F8B5CE46A0
:104EE800474643025B0A4E02DA009446720A91462C
:104EF80045004A0080B52D0E1F00C40F120EC90FC1
:104F0800B609FF2A5BD0012041408C4239D0A81A4B
:104F180000285ADD002A6AD0FF2D00D1D9E080226E
:104F2800D20416431B2800DCE9E001206346181A66
:104F3800430100D4B4E080018709380001F000F98A
:104F480005388740854200DCCCE02D1AB54838404A
:104F5800430704D00F230340042B00D0043043013F
:104F680000D4A0E06A1CFE2D00D18DE08001470A24
:104F7800D2B2D0053843E4072043C0BCB946B04696
:104F8800F8BDA81A8046002845DD002A70D0FF2DFC
:104F980000D19EE08023DB041E4343461B2B00DC2C
:104FA800D2E00120604443017AD50135FF2D6BD052
:104FB80001239D4A0340400810401843C8E7002ECB
:104FC80020D08C4223D02800FF38002839D0571B26
:104FD800002D00D09DE06346002B00D1DBE07B1E56
:104FE800012F00D10DE1FF2F71D01F0098E0002E96
:104FF80000D1A7E0421E012800D1E6E0FF2868D0D2
:1050080010008FE701204140A14200D07FE7FF2038
:1050180040428046A8444046002838D0511B002D05
:1050280000D1AEE0FF2A00D1DFE080236046DB0438
:10503800184384461B2900DCD9E00120150080199B
:10504800B1E7FE206A1C104271D1002D00D0A6E005
:105058006346002B00D1D9E00022002E00D188E75A
:10506800981B430100D4E1E063460C00F01A6FE797
:10507800002E00D1B7E00200013A012800D19CE0DF
:10508800FF2826D0904688E7FF22002771E7FE20F8
:105098006A1C104264D0FF2AF6D0150066447008D6
:1050A800430700D056E7C308FF2D12D05B025F0A02
:1050B800EAB25EE76246002A00D196E0002E08D0E8
:1050C8008022D203134204D04846104201D10C007A
:1050D8004B46002BD8D08027FF031F437F02FF22B7
:1050E8007F0A46E720233A00451B38000135EA408D
:1050F8005D1BA840431E98410025104328E7202344
:105108001B1A32009E40C2403000431E9841104393
:105118000CE7FF2ADBD080236046DB041843844673
:105128001B2F56DD01200C001500301A00E76346DE
:105138009F1B7B013DD4002F00D0FEE600240022F7
:10514800002716E70500AFE7320043464146DA403C
:1051580020235B1A9E403000431E9841104321E7EC
:10516800002DA7D16346002B59D00022002E00D174
:10517800FFE630006044430192D52A4B01351840C0
:105188008EE76346002B47D04B1E012915D0FF2917
:105198002BD019004EE70C004B463D0084E76246D1
:1051A800002A8BD1002E92D180270024FF22FF03F2
:1051B800DFE663460C00F71ABFE6300060440125BD
:1051C800430100D46CE70225F2E663460125981BEB
:1051D800AEE6202364466046FC40DF1BB840431E11
:1051E800984120439FE705005EE74B4671E720237F
:1051F80065466046CD40591A8840431E9841284369
:105208001CE763460C000125F01A91E6002E95D0A4
:105218000C004F460022ACE64B460D0044E74F46D3
:105228000022A6E6FFFFFFFBFFFFFF7D002800D05E
:1052380036E7002400279CE641024200C30F490AD2
:105248000020120E7E2A03DD9D2A02DD094A9818E5
:105258007047802000040143952A07DC9620821AB3
:10526800D1404842002BF3D10800F1E7963A91402B
:10527800F7E7C046FFFFFF7F70B5051E0ED000F0B0
:105288005FFF9E2304001B1A962B0CDC082801DD07
:10529800083CA5406D026D0AD8B201E00020002547
:1052A800C005284370BD992B09DD020029001B3277
:1052B80091404A1E91410522121AD5400D43052CF2
:1052C80012DC29000C4E31406A0709D00F20284013
:1052D800042805D004314A0102D59F2331401B1B05
:1052E80089014D0AD8B2DBE7621F95402900024EBA
:1052F80031406A07F4D0E9E7FFFFFFFBF0B55746F6
:105308004E464546DE46E0B598460C034B0006007F
:10531800924687B0240B5B0DCF0F002B00D15EE1C6
:10532800DA4A934200D177E1420FE4001443802225
:1053380012041443D64AC5009446634400930023DC
:1053480099469B46434642461E03D20F5B00504691
:105358009046360B5B0D00D122E1CC4A934200D136
:1053680064E1CB49420F8C4600996344F6008C46B1
:10537800164380229C44120463461643C200002050
:1053880000930099434601318C4649467B4001937E
:105398000F2926D8BF4B890059588F464346019399
:1053A8003400150083465B46022B16D0032B00D130
:1053B80005E2012B00D0CFE0002200240025019B4C
:1053C80012052243DB071A432800110007B0F0BC7E
:1053D800BB46B246A946A046F0BD00240025AB4A0C
:1053E800EDE7280C2D042D0C2B00110C1204120CC7
:1053F8005343984613002F00434399464F434F4465
:10540800BB4647460B003F0CBA465F4643435744EA
:105418000293B94506D99A4680235B029946CA4445
:10542800534602933B0C9B4643461B043F041B0C0C
:1054380098463B0043440493330C3604360C984694
:10544800330043439946434643432F009A46434615
:1054580077435D43380C4D444519A94503D980234A
:105468005B029946CA443F04280C3F0C2D04ED19F1
:10547800270C2404240C0300200050437A4391464F
:105488003A0053440593030C9A464A4361434944FE
:105498005144AB44894503D980235B0299464A4469
:1054A80000040B0C000C0904091820009946434617
:1054B80070435C437E435F43030C9846A4194444FD
:1054C8004A440397A64204D980235B02984647447E
:1054D8000397029B00045B441E00AB42AD412304CA
:1054E8009A46059B761898468E428941000C50448E
:1054F80040446D424719B846934649428946C344D9
:10550800D94498428041A845AD4193459241894587
:1055180089416D4240422843240C524249420A4381
:10552800039B00198018C7184B46DC0D049B7502B5
:105538001D436A1E95414B46F60D7F0235435A02BC
:105548003C431543FB0100D41CE101216A080D40CE
:105558001543E207154364084F496144002900DCFC
:10556800B0E06B0709D00F222A40042A05D02A1D73
:10557800AA42AD416D4264191500E30104D58021AA
:10558800464AC90014406144454A914200DD24E777
:105598006207ED08640249051543240B4A0D0EE71E
:1055A8005246324300D17FE0002E00D1DCE03000CB
:1055B80000F0C6FD02000B3A1D2301009B1A52465B
:1055C8000839DA408E40164352468A40009B3549D6
:1055D800181A03008C46634400200093D1E6250086
:1055E80005434AD0002C00D1B0E0200000F0A8FD0F
:1055F800010002000B391D2310005B1A3100350031
:1056080008388440D94085400C432648831A0093C3
:10561800002399469B4695E60500254326D1082296
:1056280000930223002491469B468BE65246009B3A
:10563800324310D1154900268C46634449460093ED
:1056480002231943894602209BE65B460197022BF9
:1056580000D0ABE6C1E60D4A0320944663444A46AF
:10566800009303231A43914652468AE60C2200937C
:105678000323050091469B4664E6042399460023CC
:105688000093013300249B465CE6C046FF070000F8
:1056980001FCFFFF00C80108FF030000FFFFFFFE39
:1056A800FE0700000DFCFFFF494601231943894608
:1056B8000026012065E6002380240025434A019343
:1056C80024037CE60120401A382800DD74E61F28F0
:1056D8005BDD1F2223005242511ACB4019002028BB
:1056E80003D03B4A6244944025436A1E95412A00F0
:1056F8000A4307210D000024154011425BD00F21F9
:1057080000241140042953D0111D91429241524264
:10571800A4180A0023024BD50122002400254EE6D6
:1057280080231B031C4209D01E4207D133431C03AC
:1057380043461500240B254A019340E680221203B4
:1057480014432403214A240B019738E600F0F8FC9F
:1057580001000200153120321C2900DC4BE734001F
:1057680008380025844050E700F0EAFC03001A00DE
:10577800153220301C2A00DC1EE75646083B002262
:105788009E4023E7009B9C46E6E6124922006144BE
:105798002E008D408A40C640691E8D4132432A43FF
:1057A800C4405307B6D00F2111400429ACD1B1E74A
:1057B80065076402240BD20815430022FFE5802206
:1057C800120314432403014A240BF8E5FF070000E1
:1057D8003E0400001E040000F8B557464E464546F4
:1057E800DE46E0B51E0017004A000B03520D5B0AA7
:1057F8009046420F1A43CD0FCD4C3103C300944657
:1058080070007A0F490AFF009A46B946400DF60F14
:105818001143A04200D1B1E001225640B346B5423F
:1058280000D188E04246121A002A00DCAEE00028C7
:1058380000D1C1E0BE48804500D151E1802000047C
:105848000143382A00DD7BE11F2A00DDEEE120203C
:105858003E00801A0C00D640D14087406246844002
:10586800521A781E8741944634432743DC1BA342CF
:105878009B4162465B42D31A99464B461B0200D4B1
:1058880018E14B465802430A99464B46002B00D173
:1058980037E1484600F054FC010008392023220073
:1058A80048465B1ADA4088408C4043461043884596
:1058B80000DD36E1C91A4B1C1F2B00DDEAE020226F
:1058C8002600D21A01009440DE40D84000239140BF
:1058D800621E94418146984631430C43630709D0C0
:1058E8000F232340042B05D0231DA342A441644267
:1058F800A1441C004B461B0200D4DEE041468C4B01
:105908000131994200D1E7E04B468A48E408034058
:10591800180049055B07400223434A0D040B120592
:10592800ED0722432A4318001100F0BCBB46B246DB
:10593800A946A046F8BD4246121A002A52DD0028A0
:1059480000D19CE0A04500D1CAE0802000040143BA
:10595800382A00DD49E11F2A00DC97E110000E001B
:105968002038C640202A04D04020821A91400F4394
:10597800B9464C46621E944134433AE10A003A4320
:1059880028D0B346B5422BD06B4A4244002A5DD09A
:1059980042464446821A002C00D0F5E065461D4375
:1059A80000D19CE1551E012A00D1FBE1604CA242C6
:1059B80000D1BDE12A00F0E00800384300D1C3E07F
:1059C800501E012A00D1A8E1594CA24200D187E01B
:1059D800020036E701225640B346B54200D021E71F
:1059E800554A4244002A00D1B5E042464446821A4C
:1059F800002C00D138E14E4EB04200D1DEE18026C5
:105A0800644636043443A446382A00DD96E11F2A4A
:105A180000DD24E22026B41AA24664465646B44065
:105A2800A1461C004E46D440264334005646B34097
:105A38005E1EB3411C436346D340C918E419BC42F7
:105A4800BF417F42B94680468944D8E040463B4C36
:105A58000130204200D0B4E04046002800D044E1A4
:105A68006046184300D190E10800384300D0AAE10D
:105A78006146DB0849070B436146CC0827E008006C
:105A8800384361D0501E012A00D139E1A24227D003
:105A980002005DE702001F39CA401100202B03D025
:105AA8004022D31A98400443631E9C410023994620
:105AB80098460C43630700D012E74B464A46E40871
:105AC8005B072343D408424619498A420ED024036F
