:020000040800F2
:100000000050002021020008270200082B020008EF
:100010009D020008A1020008E9020008000000009B
:100020000000000000000000000000003103000894
:100030003503000800000000390300087D0A0008AD
:100040004D0300084D0300084D0300084D03000850
:100050004D0300084D0300084D0300084D03000840
:100060004D0300084D0300084D0300084D03000830
:100070004D0300084D0300084D0300084D03000820
:100080004D0300084D0300084D0300084D03000810
:100090004D0300084D0300084D0300084D03000800
:1000A0004D0300084D0300084D0300084D030008F0
:1000B0004D0300084D0300084D0300084D030008E0
:1000C0004D0300084D0300084D0300084D030008D0
:1000D0004D0300084D0300084D0300084D030008C0
:1000E0004D0300084D0300084D0300080000000008
:1000F0000000000000000000000000000000000000
:1001000000000000000000005FF808F100B583B0B7
:1001100000F0F4FA304B314A1360314A1360314B2E
:10012000314A03E052F8041B43F8041B2F498B4269
:10013000F8D32A4B1A682E4B9A4200D0FEE7284B80
:100140001A682C4B9A42F9D1234B2B4A13602B4A45
:1001500013602B4B02E0002243F8042B294A934200
:10016000F9D3254B1B6813B9244B1B6803B1FEE779
:1001700000F0D0FA694601A800F050FA224C234B57
:10018000E41AA410002504E0204B53F825309847CA
:100190000135AC42F8DC1E4C1E4BE41AA4100025BD
:1001A00004E01C4B53F8253098470135AC42F8DC8D
:1001B0000099019800F066FC0546174C174BE41AAD
:1001C000A41004E0013C154B53F824309847002C50
:1001D000F8DC284600F0F4F9BABADECA00000020C4
:1001E0008400002000000020001600088800002085
:1001F0007856341232547698880000202801002066
:10020000880000202C0100207803000878030008F3
:1002100078030008780300087803000878030008D2
:1002200008B5FFF773FF00BEFEE71EF0040F0CBF1A
:10023000EFF30880EFF309807146414A10472DE93A
:10024000F04182B004460D46124B5F6BD3F8388004
:100250009E6A1B6B13F0020F03D00E4BDB6A002B60
:100260000BDB0D4800F0ECF9009543463A46314669
:10027000204600F053FA00BEFEE74BF6AB6100F0FB
:10028000C7FA0028EDD0034B4FF00042DA6202B00B
:10029000BDE8F08100ED00E06815000800BEFEE753
:1002A0001EF0040F0CBFEFF30880EFF309807146D6
:1002B000244A10472DE9F04182B004460D46084B10
:1002C0005F6BD3F838809E6A064800F0B9F9009554
:1002D00043463A463146204600F020FA00BEFEE78B
:1002E00000ED00E0781500081EF0040F0CBFEFF3DE
:1002F0000880EFF309807146134A10472DE9F04159
:1003000082B004460D46084B5F6BD3F838809E6A76
:10031000064800F095F9009543463A463146204696
:1003200000F0FCF900BEFEE700ED00E084150008D7
:1003300000BEFEE700BEFEE700BEFEE7704700001D
:100340003F020008B5020008FD02000800BEFEE7FB
:100350000016000800000020880000200016000899
:100360000000000000000000880000202C01002098
:08037000000000000000000085
:1003780070B505460C464B4B98421BD003F580637D
:10038800984217D003F58063984213D003F5806331
:1003980098420FD003F5806398420BD003F5806331
:1003A800984207D003F58063984203D0B2213E48B3
:1003B80000F038F9E3786BB1042B0BD0282B09D067
:1003C800482B07D0142B05D0102B03D01C2B01D0A1
:1003D800182B14D12388BBB1E37803F00F063046FD
:1003E80013F0100F06D0A378013BDBB2022B10D814
:1003F800A078304323786BB32E68002310E0B32134
:10040800294800F00FF9E5E7B421274800F00AF978
:10041800E2E7BB21244800F005F9E9E76A61013306
:10042800072B16D801229A40218832EA0101F6D119
:1004380099004FF00F0C0CFA01FC26EA0C0600FAA2
:1004480001F10E43E1782829E8D04829E7D12A614B
:10045800E5E72E602388FF2B22D96E68002303E08E
:10046800E178482919D00133072B18D803F108017E
:1004780001228A40218832EA0101F4D199004FF023
:100488000F0C0CFA01FC26EA0C0600FA01F10E43E7
:10049800E1782829E4D16A61E2E72A61E3E76E603E
:1004A80070BD00BF00080140A813000838B5044615
:1004B8000D46144B98421CD003F58063984218D01F
:1004C80003F58063984214D003F58063984210D0F6
:1004D80003F5806398420CD003F58063984208D0F6
:1004E80003F58063984204D040F26911064800F091
:1004F80099F80DB1256138BD4FF4B571024800F087
:1005080091F8F7E700080140A813000838B5044639
:100518000D46144B98421CD003F58063984218D0BE
:1005280003F58063984214D003F58063984210D095
:1005380003F5806398420CD003F58063984208D095
:1005480003F58063984204D040F27911064800F020
:1005580069F80DB1656138BD4FF4BD71024800F00E
:1005680061F8F7E700080140A813000838B5044609
:100578000D460E4B034003B920B940F24A410C48DE
:1005880000F050F8012D05D855B10A4B986904437D
:100598009C6138BD40F24B41054800F043F8F3E751
:1005A800044B986920EA04049C61F2E70200C0FF4A
:1005B800DC13000800100240FEE7000008B50348FD
:1005C80000F054F80120FFF7F7FF00BF0C140008F3
:1005D80008B503460C4A12685AB10B4A106803332F
:1005E80023F003030344094A934206D8064A1360DA
:1005F80008BD054A06491160EFE700F073FA0C23BD
:1006080003604FF0FF30F3E78C000020004C00201F
:100618002C01002001230360014B0B60704700BFD1
:100628000400002008B50A460146024800F004F814
:10063800FFF7C4FF201400080FB400B583B004AB63
:1006480053F8042B01938021074800F085FA00280D
:1006580004DC03B05DF804EB04B0704701460248BF
:1006680000F044F8F5E700BF9800002010B50446F4
:1006780000F03EFA0146204600F038F80121024811
:1006880000F034F810BD00BFE41400082DE9F04371
:1006980085B004460F46435633BB042528462146F9
:1006A800ABBE0446384605B0BDE8F08314F901CB6B
:1006B80004AA1A4402F810CC0133AB42F6D304AAB8
:1006C8001344002203F8102C4FF00408E946404672
:1006D8004946ABBE8046761B002EE3D03546102E29
:1006E80028BF10250023E8E70E46F5E708B5FFF711
:1006F800CDFF08BD08B500F0FDF8024A024B9A602C
:1007080008BD00BF0000000800ED00E008B500F0DB
:1007180019F908BDF8B504460D4617461E46274880
:10072800FFF78AFF21682648FFF786FF616825489A
:10073800FFF782FFA1682448FFF77EFFE16823489E
:10074800FFF77AFF21692248FFF776FF61692148A0
:10075800FFF772FFA1692048FFF76EFFE1691F48A4
:10076800FFF76AFF1E48FFF767FF29461D48FFF796
:1007780063FF1D4CE16A1D48FFF75EFF216B1C48B3
:10078800FFF75AFFE16B1B48FFF756FF15F0800F84
:100798000AD115F4004F0CD11748FFF74DFF069901
:1007A8001648FFF749FFF8BD39461548FFF744FFDB
:1007B800EFE731461348FFF73FFFEDE74C14000819
:1007C8005C1400086C1400087C1400088C140008E1
:1007D8009C140008AC140008BC140008CC140008D1
:1007E800DC140008E814000800ED00E0F814000824
:1007F80008150008181500084815000850150008C5
:10080800281500083815000883691A888A4201D01B
:10081800002070470268033A012A01D90020704776
:10082800023383610120704782B000230193009353
:100838002C4A136843F4803313602A4B1B6803F473
:1008480000330093019B01330193009B1BB9019B6B
:10085800B3F5A06FF1D1234B1B6813F4003F06D00A
:1008680001230093009B012B04D002B070470023A2
:100878000093F7E71C4B1A6842F010021A601A68D6
:1008880022F003021A601A6842F002021A60A3F505
:1008980080535A685A605A685A605A6842F48062AB
:1008A8005A605A6822F47C125A605A6842F4E81274
:1008B8005A601A6842F080721A600A4B1B6813F07B
:1008C800007FFAD0074B5A6822F003025A605A6830
:1008D80042F002025A60034B5B6803F00C03082BDA
:1008E800F9D1C2E7001002400020024008B5FFF726
:1008F8009BFF08BD08B5104B1A6842F001021A6048
:1009080059680E4A0A405A601A6822F0847222F422
:1009180080321A601A6822F480221A605A6822F417
:10092800FE025A604FF41F029A60FFF7DFFF044B84
:100938004FF000629A6008BD001002400000FFF806
:1009480000ED00E01F4B5B6803F00C03042B15D08F
:10095800082B17D01BB11C4B1C4A1A6002E01A4B1B
:100968001A4A1A60174B5B68C3F30313184AD35C1F
:10097800DAB215490B68D3400B607047124B134A23
:100988001A60EFE70F4A53685268C3F38343023390
:1009980012F4803F05D10F4A02FB03F30A4A1360A1
:1009A800E0E7084A526812F4003F05D0094A02FB02
:1009B80003F3054A1360D5E7044A02FB03F3024A2E
:1009C8001360CFE7001002401C00002000127A00DC
:1009D8000C00002000093D0030B583B00121102033
:1009E800FFF7C4FD4FF48055ADF8045003238DF88C
:1009F800063010238DF80730054C01A92046FFF773
:100A0800B7FC29462046FFF751FD03B030BD00BFB3
:100A1800001001400A4B1B680A4AA2FB03239B09EA
:100A2800013BB3F1807F0AD24FF0E0225361064BBD
:100A3800F02183F823100023936107231361704783
:100A48001C000020D34D621000ED00E0034B18603D
:100A5800024B1B68002BFBD1704700BF1801002018
:100A6800034B1B681BB1024A1368013B13607047B4
:100A78001801002008B5FFF7F3FF08BD10B51448AA
:100A8800FFF7F4FD134B19681348FFF7D5FDFFF77F
:100A9800C1FFFFF7A1FF002410E04FF47A70FFF7C1
:100AA800D5FF4FF480510D48FFF700FDFA20FFF7FE
:100AB800CDFF013421460A48FFF7BEFD4FF48051AF
:100AC8000648FFF723FD002CE7D040F2EE20E6E7CA
:100AD800941500081C000020A8150008001001400B
:100AE800C0150008014B1868704700BF200000209F
:100AF800034613F8012B002AFBD1181A0138704756
:100B080030B51446002C05461A469BB005DA8B23EF
:100B180003604FF0FF301BB030BD4FF40273ADF8E7
:100B28000C300CBF234604F1FF33029305934FF6B4
:100B3800FF7300910491ADF80E3069461E9B00F0DA
:100B480075F8431CBCBF8B232B60002CE3D000221C
:100B5800009B1A70DFE7000007B5009313460A46AA
:100B6800014603480068FFF7CBFF03B05DF804FBBC
:100B7800200000202DE9F0478E6882469E420C46F0
:100B880090461F4638D88A8912F4906F32D025686B
:100B980009690133A5EB010965694B4405EB450576
:100BA80005EBD5756D109D4238BF1D46530531D5EF
:100BB800294600F04FFB064650B90C234FF0FF3092
:100BC800CAF80030A38943F04003A381BDE8F08749
:100BD8004A46216900F0CEFAA38923F4906343F0D2
:100BE8008003A38126614E4426603E466561A5EBDD
:100BF8000905A560BE4200D93E46324641462068F6
:100C080000F0C6FAA36800209B1BA3602368334446
:100C18002360DBE72A4600F077FB06460028E1D18F
:100C28005046216900F0CEFAC7E700002DE9F04FE1
:100C380098468B8907461B060D4614469DB00ED56F
:100C48000B6963B9402100F005FB2860286120B9D1
:100C58000C233B604FF0FF30D1E040236B61002351
:100C6800099320238DF8293030234FF00109CDF85E
:100C78000C80DFF8A4818DF82A3023469A4613F8B1
:100C8800012B0AB1252AF9D1BAEB040B0BD05B462C
:100C9800224629463846FFF76DFF013000F0AA804A
:100CA800099A5A4409929AF80030002B00F0A28061
:100CB80000234FF0FF32CDE905230AF1010A04931E
:100CC80007938DF853301A935446052214F8011BE4
:100CD800514800F041FA049AD8B9D00644BF2023FD
:100CE8008DF85330110744BF2B238DF853309AF8F1
:100CF80000302A2B15D0544600204FF00A0C079AD2
:100D0800214611F8013B303B092B4ED9B0B107926F
:100D180014E0A0EB080309FA03F31343A246049373
:100D2800D2E7039B191D1B680391002BBBBF5B42D5
:100D380042F0020207930793B8BF049223782E2B40
:100D48000CD163782A2B35D1039B02341A1D1B68FA
:100D58000392002BB8BF4FF0FF330593DFF8BCA018
:100D680003225046217800F0F7F940B14023A0EB68
:100D78000A0003FA00F0049B01340343049314F8B7
:100D8800011B062226488DF8281000F0E5F90028F6
:100D980038D0244B1BBB039B073323F007030833CE
:100DA8000393099B3344099367E70C4601200CFB26
:100DB8000232A5E700234FF00A0C194601340593C7
:100DC800204610F8012B303A092A03D9002BC5D048
:100DD8000591C3E7044601230CFB0121F0E703ABAF
:100DE80000932A463846104B04A9AFF30080421CF2
:100DF8000646D6D1AB895B063FF52CAF09981DB0E6
:100E0800BDE8F08F03AB00932A463846064B04A989
:100E180000F07CF8EBE700BFCB150008D1150008FF
:100E2800D5150008000000007D0B00082DE9F047EB
:100E3800164699468A680B6907469342B8BF134617
:100E4800336091F843200C46DDF820800AB1013365
:100E580033602368990642BF3368023333602568DC
:100E680015F0060506D104F1190AE36832689B1AE1
:100E7800AB4228DC94F84320131E226818BF0123D4
:100E880092062DD44946384604F14302C047013042
:100E980020D02368E56803F00603042B18BF00255B
:100EA80032684FF00006A36808BFAD1A226908BF70
:100EB80025EAE5759342C4BF9B1AED181A34B5426A
:100EC8001AD1002008E00123524649463846C04757
:100ED800013003D14FF0FF30BDE8F0870135C4E79A
:100EE8003020E11881F843005A1C94F84510224438
:100EF800023382F84310C5E70123224649463846A3
:100F0800C0470130E6D00136D9E700002DE9FF4798
:100F18000F7E9146782F80460C469A460C9D01F12B
:100F2800430207D8622F0AD8002F00F0D980582F23
:100F380000F0A48004F1420584F842703AE0A7F179
:100F48006303152BF6D801A151F823F0AD0F000863
:100F5800C10F00083D0F00083D0F00083D0F0008B5
:100F68003D0F0008C10F00083D0F00083D0F0008A5
:100F78003D0F00083D0F0008CF100008F10F0008D2
:100F8800B11000083D0F00083D0F0008F1100008DF
:100F98003D0F0008F10F00083D0F00083D0F000845
:100FA800B91000082B681A1D1B682A6004F1420555
:100FB80084F842300123A4E020682968060601F17C
:100FC80004030AD50E682B60002E03DA2D2376421F
:100FD80084F843300A235E4819E00E6810F0400F89
:100FE8002B6018BF36B2EFE72B682068191D2960FF
:100FF800010601D51E6802E04606FBD51E886F2F44
:101008000CBF08230A235248002184F8431065685E
:10101800002DA8BF2168A560A4BF21F004012160AC
:101028000EB9002D4DD01546B6FBF3F103FB116741
:10103800C75D05F8017D3746BB420E46F4D9082B3B
:101048000BD12368DE0708D5236961689942DEBFA2
:10105800302305F8013C05F1FF35521B22614B4650
:1010680021464046CDF800A003AAFFF7DFFE013075
:101078004CD14FF0FF3004B0BDE8F087344881F818
:1010880045702968236851F8046B29601D0614D53A
:10109800DF0744BF43F0200323601EB9236823F011
:1010A800200323601023AFE7236843F02003236065
:1010B8007823284884F84530E3E7590648BFB6B294
:1010C800E6E71546BBE72B682668181D61692860A6
:1010D80035061B6801D5196002E07006FBD519803A
:1010E800002315462361BAE72B6800211A1D2A60E0
:1010F8001D686268284600F02FF808B1401B606040
:1011080063682361002384F84330A8E72A464946E8
:1011180040462369D0470130ABD023689B0713D4DE
:10112800E068039B9842B8BF1846A4E701233246FB
:1011380049464046D04701309BD00135E3680399C2
:101148005B1AAB42F2DCEBE7002504F11906F5E780
:10115800DC150008ED150008034610B5C9B20244B5
:101168009342184601D1002003E0047801338C42F1
:10117800F6D110BD0A44914200F1FF3300D1704707
:1011880010B511F8014B914203F8014FF9D110BD88
:10119800884210B501EB020402D98442234607D8DD
:1011A800431EA14208D011F8012B03F8012FF8E7DC
:1011B800014602448A4200D110BD13F8014D02F8DD
:1011C800014DF7E738B50546002940D051F8043CF1
:1011D8000C1F002BB8BFE41800F0CCF81C4A1368A9
:1011E80033B9636014602846BDE8384000F0C8B8D9
:1011F800A34208D9206821188B4201BF19685B688F
:1012080009182160EDE71A465B680BB1A342FAD9C9
:1012180011685018A0420BD120680144501883422D
:101228001160E0D118685B68014411605360DAE727
:1012380002D90C232B60D6E7206821188B4201BF06
:1012480019685B680918216063605460CBE738BD92
:101258001C010020F8B5CD1C25F0030508350C2D20
:1012680038BF0C25002D064601DBA94203D90C2303
:1012780033600020F8BD00F07DF821490A68144663
:101288009CB9204F3B6823B92146304600F062F8EC
:1012980038602946304600F05DF8431C23D10C2302
:1012A8003046336000F06CF8E3E723685B1B17D423
:1012B8000B2B03D923601C44256004E06368A24219
:1012C8000CBF0B605360304600F05AF804F10B0075
:1012D800231D20F00700C21ACCD01B1AA350C9E75F
:1012E80022466468CCE7C41C24F00304A042E3D07F
:1012F800211A304600F02EF80130DDD1CFE700BFCB
:101308001C01002020010020F8B5074614460E46AF
:1013180021B91146BDE8F840FFF79CBF22B9FFF795
:1013280051FF25462846F8BD00F030F8A0420FD2FC
:1013380021463846FFF78EFF05460028F2D0314691
:101348002246FFF717FF31463846FFF73BFFE9E72C
:101358003546E7E738B50023054D044608462B60B7
:10136800FFF736F9431C02D12B6803B1236038BD5F
:1013780090000020014800F011B800BF24010020AF
:10138800014800F00CB800BF2401002051F8043CCB
:10139800181F002BBCBF0B58C01870477047704708
:1013A8002E2E2F73797374656D2F7372632F737478
:1013B8006D333266312D7374647065726970682F8D
:1013C80073746D3332663130785F6770696F2E637E
:1013D800000000002E2E2F73797374656D2F7372C1
:1013E800632F73746D333266312D73746470657254
:1013F8006970682F73746D3332663130785F726349
:10140800632E630061626F727428292C20657869E5
:1014180074696E672E2E2E006173736572745F7027
:101428006172616D2829206661696C65643A20667D
:10143800696C6520222573222C206C696E65202535
:10144800640A0000537461636B206672616D653ACB
:101458000A000000205230203D2020253038580A4C
:1014680000000000205231203D2020253038580A45
:1014780000000000205232203D2020253038580A34
:1014880000000000205233203D2020253038580A23
:101498000000000020523132203D20253038580A03
:1014A80000000000204C52203D2020253038580AEA
:1014B80000000000205043203D2020253038580AE5
:1014C8000000000020505352203D20253038580A93
:1014D800000000004653522F4641523A0A000000CD
:1014E8002043465352203D2020253038580A00001A
:1014F8002048465352203D2020253038580A000005
:101508002044465352203D2020253038580A0000F8
:101518002041465352203D2020253038580A0000EB
:10152800204D4D464152203D20253038580A0000B4
:101538002042464152203D2020253038580A0000DC
:101548004D6973630A000000204C522F4558435FD1
:1015580052455455524E3D20253038580A00000057
:101568005B486172644661756C745D0A0000000036
:101578005B4275734661756C745D0A005B557361F7
:1015880067654661756C745D0A00000048656C6C9F
:101598006F2041524D20576F726C6421000000008B
:1015A80053797374656D20636C6F636B3A2025758E
:1015B80020487A0A000000005365636F6E64202596
:1015C800750A00232D302B2000686C4C0065666777
:1015D80045464700303132333435363738394142A1
:1015E8004344454600303132333435363738396173
:0615F800626364656600F9
:101600007856341294000020000000000000000012
:1016100000000000010203040607080900A24A04B2
:101620002400002000000000000000000000000076
:1016300000000000000000000000000000000000AA
:10164000000000000000000000000000000000009A
:10165000000000000000000000000000000000008A
:10166000000000000000000000000000000000007A
:10167000000000000000000000000000000000006A
:081680000000000032547698CE
:040000050800010DE1
:00000001FF
